:020000040000FA
:060000000201070231417C
:03002B000235B4E7
:0300330002358E05
:03003B000235D1BA
:030043000235394A
:030053000231B7C0
:03006B0002355FFC
:10008300022F97E5C754F84401F5C7790122000010
:100093000080FB120086B900030200F1E4792178A5
:1000A30008B800028004F709D8FCE479297802B87B
:1000B30000028004F709D8FCE4900281784C791996
:1000C3008002F0A3D8FCD9FA7ACC7B1A9001377856
:1000D3001379058015E493A3AD82AE838A828B8363
:1000E300F0A3AA82AB838D828E83D8E9D9E7758288
:1000F300DE7583D8740512011975829175830074B6
:100103000012011975D00075813F751881751902A8
:10011300759F00020096C09FF59FE473D09F22D085
:1001230083D082C09FE493C0E0740193C0E0740263
:1001330093F59F22ED06F9062F072907FF0000B468
:10014300000028002800283075A000A000A000A00F
:100153000000080008E001F000100010001000107B
:10016300001000100050005000500010001000D08C
:10017300070000000000000F0001000500307507B4
:10018300001000010081FF00000000FFFFFF6D0869
:100193008B087308AF08FF02020208025000A00098
:1001A3000000E80302A6960100008B9602A09601C8
:1001B30000002F1B029A960100000A0402A0960178
:1001C3000000301B02AE96010000200402A096013D
:1001D3000000311B02B496010000220402A0960124
:1001E3000000321B02BC96080000230402A0960103
:1001F3000000331B02C296010000341BFFFF010005
:10020300FF2002A6960100008E9602A09601000030
:10021300991B02DC960000000000029C960300007C
:1002230053041700F510F510F510F510F510F5103F
:10023300F510F510F510F510F510F510F5104D1338
:100243006B1347139114A3148B14020202020202CC
:10025300020202010D000000100102A69601000037
:10026300979602A096010000E21B02BE96010000D1
:10027300A20E02A096010000E31B02C69601000035
:10028300B99202A096010000E41B02C89601000087
:100293006A9202A096010000E51B02C496010000C9
:1002A300EA9002A096010000E61B02C0960100003E
:1002B300D89002A096010000E71B02B89601000047
:1002C300209102A096010000E81B02DA96010000CB
:1002D300329102A096010000E91B02B296010000D0
:1002E3004E9202A096010000EA1B02B096010000A4
:1002F300EB1B0401E803057710020A0ACB16FFFF84
:10030300FF00013075030201060000000000000039
:1003130000000000000000000000000000000000DA
:100323000000000000FFFF0600800CE803013FFE11
:10033300FF0101010201060302F0FF0201061AFF99
:100343004C000215E2C56DB5DFFB48D2B060D0F5B5
:10035300A71096E000010002CD931B991BA51BABD0
:100363001B9F1B0A436861726163746572697374CE
:100373006963203100024368617261637465726965
:100383007374696320320008436861726163746542
:100393007269737469632033001043686172616327
:1003A300746572697374696320340002436861720F
:1003B30061637465726973746963203500164368F9
:1003C30061726163746572697374696320360010C6
:1003D300436861726163746572697374696320371A
:1003E3000002A696010000919602A096010000FB70
:1003F3001C02CC96030000911A029E96010000FC99
:100403001C02A0960100000D1D02CE960100009271
:100413001A029E960100000E1D02A0960100001F05
:100423001D02D096020000931A029E96010000203E
:100433001D02A096010000311D02D2960000009417
:100443001A029C96030000951A029E960100003240
:100453001D02A096010000431D02D49604000097DC
:100463001A029E96010000441D02A0960100005549
:100473001D02D6960300009C1A029C96030000B14D
:100483001A029E96010000561D02A0960100006705
:100493001D02D896000000B31A029C96030000C800
:1004A3001A029E96010000681D0100B0423BAAB8E3
:1004B3003F0000003F8C906339AA0CA33A00941EBE
:1004C3003C8042633DCFFE753E1572313F00008094
:1004D3003FF304353F8096184B3031323334353691
:1004E30037383941424344454600286E756C6C20C9
:1004F300706F696E7465722900303132333435366A
:10050300373839616263646566003F3F3F0000002E
:10051300807FF9021550B743BA5100E7DB2E000084
:10052300A040000080BF2292D43EDD9B2A3F0400FE
:10053300004000000000FFFF7F7FFFFF7FFF0100FF
:1005430080341872313F12012263BF051201224A1F
:10055300C00512012244C10512012216BD05120174
:100563002229BD051201224ABD05120122B5BD058E
:10057300120122F6BD0512012217BE0512012258EF
:10058300BE05120122F0BE0512012238BF05120179
:1005930022F9A5051201220CA6051201223DA6058A
:1005A30012012277A605120122D0A60512012217F5
:1005B300A7051201225FA7051201228EA7051201CA
:1005C30022BDA705120122F4A7051201223BA805AB
:1005D30012012254A805120122A9A805120122C260
:1005E300A80512012210A9051201224AA905120128
:1005F30022008004120122038104120122308104AB
:10060300120122818104120122A48104120122B663
:100613008104120122B98104120122F7810412011B
:10062300226B8204120122D782041201229F8304C7
:10063300120122BB8304120122F283041201222C31
:100643008404120122C384041201221585041201B9
:10065300224685041201227785041201228485042F
:10066300120122EE8504120122F18504120122FEF9
:100673008504120122018604120122588604120104
:10068300225B8604120122948604120122978604B7
:10069300120122CB8604120122CE860412012222E9
:1006A30087041201226B87041201227B8704120143
:1006B30022AE8704120122BB8704120122BE8704E3
:1006C300120122268804120122288904120122CC55
:1006D3008904120122358A04120122738A04120149
:1006E300227AF60212012277F7021201220DF80292
:1006F30012012258F802120122BCF802120122460A
:10070300F902120122FFF90212012221FD02120154
:10071300229EFE02120122C1FE02120122DA91057B
:100723001201227F93051201229F9305120122C019
:100733009405120122139505120122239A05120131
:10074300224B9A05120122789A05120122B09A05CA
:100753001201220E9B051201225A9B05120122C18E
:100763009B05120122019C051201223E9C051201E8
:10077300226C9C05120122169D05120122209D0563
:100783001201222D9D05120122609D051201226C8A
:100793009D05120122849D051201228E9D051201E1
:1007A30022F4D20512012202D3051201221AD30523
:1007B30012012232D30512012249D305120122D597
:1007C300E4021201227FE50212012292E6021201E3
:1007D300220EE7021201222CE80212012268E8022B
:1007E30012012203E902120122E7E902120122AAFD
:1007F300EA0212012222EB02120122B0EC021201E0
:100803002221ED02120122DBED02120122CDEE02C2
:100813001201220DEF02120122C1EF02120122F393
:10082300EF02120122E9F10212012230F202120157
:10083300224EF202120122B4F20212012283F302C7
:1008430012012247F40212012266F60212012270FB
:10085300F602120122E0C104120122CAC2041201EB
:100863002275C304120122C6C30412012276C404F2
:10087300120122E7C404120122CCC5041201220092
:10088300C604120122F9C60412012236C70412015A
:100893002212C80412012251C8041201226DC80495
:1008A30012012287C3051201220BC405120122364D
:1008B300C40512012250C5051201221C9E05120116
:1008C30022329E05120122509E05120122619F05CC
:1008D3001201226B9F0512012296A0051201228D9F
:1008E300A105120122FAA10512012204A205120197
:1008F3002299CF04120122CFD00412012249D1043C
:1009030012012279D1041201228CD104120122E3B3
:10091300D104120122F8D3041201222E96021201ED
:1009230022DF9602120122FB9602120122C49702D1
:10093300120122DE9702120122E99702120122BF5D
:1009430098021201229C99021201222C9A0212018E
:1009530022E39A02120122F19D02120122E09F0278
:1009630012012292A0021201225BA102120122A013
:10097300A4021201224AA50212012273A602120145
:10098300222FA802120122CFA8021201221DA902BE
:100993001201225CA9021201222FAA021201226370
:1009A300AA02120122F0AA0212012241D20212016A
:1009B30022CDD20212012231D4021201223DD402ED
:1009C30012012278D402120122E7D402120122F08A
:1009D300D502120122F9D602120122C0D702120156
:1009E300221DD9021201223BD90212012258D90237
:1009F30012012205DA0212012282DA02120122AA6C
:100A0300DA0212012274DD0212012279DD021201DF
:100A13002292DF02120122E0DF0212012250E002E1
:100A23001201228EE0021201226AE1021201222A3D
:100A3300E20212012276E20212012279E20212019B
:100A430022BDE20212012205E30212012244E30263
:100A530012012266E3021201229AE302120122FD2D
:100A6300E302120122AEF504120122B7F5041201CA
:100A730022C5F50412012218F60412012237F604E6
:100A83001201227CF604120122C0F7041201225B38
:100A9300F8041201229FF804120122C9F80412017A
:100AA3002238F9041201227EF904120122F5F90415
:100AB300120122A6FA04120122B8B701120122C8B8
:100AC300B70112012269B801120122C5B80112014E
:100AD3002282B9011201229EBA01120122D0BA0167
:100AE300120122FFBA01120122ACBC01120122231E
:100AF300BF0112012293C10112012285C201120119
:100B0300227EC30112012285C50112012279C80187
:100B1300120122A8C901120122ACCB01120122BC8D
:100B2300CC011201224BCE011201223CCF01120152
:100B3300228ACF01120122F9CF011201221DD00115
:100B43001201226ED0011201220FD50112012210CF
:100B5300D60112012271D6011201229CD601120183
:100B63002262D7011201227DDB0412012287DB04FA
:100B7300120122CCDB04120122E0DB0412012270F9
:100B8300DC04120122A9DC04120122E4DC041201B8
:100B9300220DDD041201225BDD0412012270DD044B
:100BA30012012285DD041201229ADD04120122DDE5
:100BB300DD04120122F2DD041201225DDE041201C2
:100BC3002271DE0412012285DE041201229ADE0460
:100BD300120122D4DE04120122F8DE0412012224BF
:100BE300DF041201225BDF04120122BDDF041201C4
:100BF300222FE00412012272E0041201229CE0047D
:100C0300120122C7E004120122EED005120122D301
:100C1300C803120122B6C90312012231CA03120109
:100C2300226CCA03120122BDCB0312012246CC035C
:100C33001201225ECE03120122F0D003120122A27E
:100C4300D103120122AED20312012221D4031201D5
:100C5300227AD40312012270EB04120122B3EB04B3
:100C630012012237EC041201220AED04120122E1DF
:100C7300EF0412012217B805120122C4B8051201AC
:100C830022D1B90512012210BA051201226ABA054E
:100C930012012274C705120122D7C705120122745B
:100CA300C805120122A9C805120122D9C8051201DB
:100CB30022FAC80512012235C90512012255C905B8
:100CC300120122B8FA0412012244FB041201220386
:100CD300FC041201221BFD0412012235FF04120140
:100CE3002223D50312012248D50312012215D6036C
:100CF300120122E9D60312012256D703120122ACB4
:100D0300D70312012248D8031201227CD90312010E
:100D13002257DA03120122B6DA0312012242DB035D
:100D2300120122B0DB031201223CDC031201223F39
:100D3300DC0312012289DC03120122FBDC03120112
:100D4300228DDD031201222EDE031201224EDE0369
:100D530012012296DE03120122DFDE03120122FBBF
:100D6300DE0312012221DF031201229BDF031201A2
:100D730022A9DF0312012238E003120122A1E003BA
:100D83001201229784051201221C85051201225E9D
:100D93008505120122428605120122AF8605120142
:100DA30022F3860512012237870512012264870583
:100DB3001201228C8705120122C487051201220227
:100DC3008805120122298805120122A38805120130
:100DD30022ED8805120122CED701120122C7D901C3
:100DE300120122B3DC0112012207DD0112012232BA
:100DF300DD011201220CDE011201224BDE01120180
:100E03002292DE01120122A5DE01120122E6DE0199
:100E130012012213DF0112012261DF01120122A05C
:100E2300DF01120122CBDF011201221EE0011201B8
:100E330022ADE0011201228BE301120122A6E5019A
:100E4300120122E4E50112012259E7011201229E57
:100E5300E70112012292E801120122ABEA01120119
:100E6300220DEB011201225EEB0112012279F00146
:100E7300120122C8F0011201220EF101120122F621
:100E8300F201120122C4F401120122C9F401120178
:100E930022A3F5011201221CF6011201224CF701D3
:100EA3001201225EF70112012271B505120122E33C
:100EB300B50512012239B6051201227DB6051201CC
:100EC300229DB605120122EAB60512012232B705A8
:100ED30012012285B705120122D6B7051201226D30
:100EE300A804120122ECA804120122E5AE041201A7
:100EF30022EBAF041201225EB104120122F5B10408
:100F0300120122F760001201224061001201226DDA
:100F130061001201229F6100120122AB61001201E4
:100F230022B76100120122CE6100120122A96200E0
:100F33001201220763001201223C63001201226D99
:100F43006400120122BA640012012200650012013A
:100F5300226C6500120122106600120122C666008F
:100F6300120122256700120122966700120122F462
:100F730067001201222669001201228E6A00120103
:100F830022586B00120122656B00120122A76B002D
:100F9300120122B76B00120122DB6B00120122DE69
:100FA3006B00120122CA6C00120122666D0012014D
:100FB30022FF6D00120122966E00120122C36E0001
:100FC300120122216F00120122686F00120122B860
:100FD3006F001201220870001201227A70001201C0
:100FE30022157100120122C071001201225F7200EA
:100FF300120122DD720012012224730012012288E1
:101003007300120122B773001201224E7400120101
:1010130022607600120122A47600120122EF7600EC
:10102300120122757700120122FF770012012218A4
:1010330079001201229E7900120122C37900120164
:10104300221A7A001201222F7A00120122777A00E3
:10105300120122EA7A001201222F7B0012012238A8
:101063007C00120122E97C00120122477D0012015B
:1010730022A37D00120122BC7D001201226FF60320
:10108300120122C3F603120122CFF60312012299A1
:10109300F703120122C6F703120122F4F703120128
:1010A3002260F80312012296F803120122CFF803FB
:1010B300120122E7F8031201223CF903120122551F
:1010C300F9031201229AF903120122ADF903120165
:1010D30022C7F903120122DDF903120122FBFA03ED
:1010E30012012226FC0312012210FD031201220128
:1010F300FE0312012251360012012293F004120161
:101103002216F40412012263F50412012257BC03D0
:101113001201222ABF0312012230BF03120122C08F
:10112300C10312012223C40312012200800512010C
:10113300229780051201225581051201227F810524
:101143001201225983051201225E84051201220035
:1011530080021201223280021201224F8C021201FC
:1011630022A08D02120122A98E02120122289002CE
:101173001201221391021201226291021201227CB6
:101183009102120122BE9102120122C9910212019F
:1011930022109202120122199202120122C5920216
:1011A3001201229E9302120122E593021201224DA3
:1011B30094021201228F9402120122BD94021201A1
:1011C30022FA94021201223DBF0212012208C30235
:1011D3001201220EC302120122B2C9021201220617
:1011E300CE02120122EFD102120122B2A90512018D
:1011F3002228AA051201223EAA05120122CEAA051F
:101203001201220BAB0512012245AB051201227F0D
:10121300AB05120122F2AB0512012233AC05120118
:10122300223CAC0512012248AC0512012267AC0531
:1012330012012291AC05120122A6AC05120122E98A
:10124300AC05120122CEC804120122E1C804120126
:1012530022FBC80412012228C9041201226EC90408
:10126300120122A1C904120122DFC904120122447E
:10127300CA0412012259CA0412012264CA041201C7
:101283002271CA0412012288CA0412012296CA04D6
:10129300120122A5CA04120122BACA04120122CFE2
:1012A300CA04120122DACA04120122E6CA04120194
:1012B30022F3CA0412012206CB0412012211CB0429
:1012C30012012236CB04120122DACB04120122EAE4
:1012D300CB04120122FFCB0412012214CC0412010D
:1012E300222ECC041201224BCC0412012268CC041E
:1012F30012012273CC041201221FCD041201220019
:10130300CE0412012225CE0412012230CE04120192
:101313002245CE0412012259CE04120122BACE0470
:10132300120122C0CE04120122C6CE04120122CC25
:10133300CE04120122E4CE0412012217CF041201BB
:1013430022998A04120122BB8A04120122838B048C
:101353001201223D8E04120122538F0412012274C2
:1013630090041201224E9104120122FD91041201F4
:1013730022D4AE031201226BAF0312012203B00386
:10138300120122F3B0031201222AB1031201223DFA
:10139300B103120122ABB10312012246B3031201BE
:1013A300226DB3031201220FB40312012244B403CA
:1013B30012012255B403120122CEB403120122EF0B
:1013C300B40312012207B5031201225FB60312010F
:1013D3002268B803120122B8BA03120122BBBB036D
:1013E3001201220ABC0312012238A0031201223582
:1013F300A10312012220A2031201222AA203120135
:101403002234A20312012256A20312012262A20372
:10141300120122B4A303120122E3A3031201221334
:10142300A50312012255A50312012281A60312016D
:101433002257A703120122A9A70312012208A80316
:101443001201223FA8031201227AA80312012215D6
:10145300AC031201222EAC03120122B0AC03120121
:1014630022BEAC0312012213AD0312012221AD03EC
:101473001201228EAD0312012200AE031201224695
:10148300AE03120122C4E003120122E6E0031201BB
:1014930022D0E20312012275E603120122B8E70308
:1014A30012012292E8031201221ACB051201223FF4
:1014B300CB05120122B0CB0512012281F7011201E3
:1014C300228AF70112012293F701120122C4F801C3
:1014D300120122E3FA0112012219FB011201225324
:1014E300FB0112012289FB01120122C3FB0112013C
:1014F30022F7FB0112012223FC011201226CFC01E1
:10150300120122A6FC01120122EEFC011201224467
:10151300FD0112012279FD01120122D4FD01120104
:10152300220EFE011201225FFE0112012295FE012D
:10153300120122CFFE01120122FDFE01120122201F
:10154300FF01120122F3D6051201221FD705120152
:10155300227AD70512012284D70512012294D705D6
:101563001201221FB20412012263B20412012211DA
:10157300B30412012289B304120122DBB304120162
:10158300227BB404120122B7B40412012251B50420
:10159300120122CEB50412012227B7041201224000
:1015A300B70412012278B8041201220BB904120104
:1015B3002274B904120122E0B9041201222D890513
:1015C300120122548905120122858905120122EC98
:1015D3007D00120122037E00120122327E001201DD
:1015E30022B87E00120122CA7F00120122ED7F0081
:1015F3001201229ED705120122DE9601120122FA60
:101603009901120122EB9B011201225D9C0112013F
:10161300221B9D01120122C69D01120122569E0129
:10162300120122E59E011201220F9F011201227C69
:101633009F01120122B6A4011201224AA50112013F
:101643002279A601120122DDA60112012291A7012E
:1016530012012244AA011201227EAA01120122E8E8
:10166300AA0112012246AB01120122A4AB0112010D
:101673002201AC01120122F0AC0112012236AD01AC
:101683001201227BAD011201229CAD01120122FE47
:10169300AE0112012219AF011201229FB001120102
:1016A30022CCB0011201220CB10112012252B1016C
:1016B30012012270B101120122AEB101120122D432
:1016C300B3011201220DB401120122A4B4011201CB
:1016D3002244B501120122D7B50112012243B601FA
:1016E30012012284B701120122EFE00412012283C6
:1016F300E104120122C2E2041201224BE3041201AB
:10170300221EE40412012247E404120122AEE4047F
:1017130012012216E50412012202D205120122133C
:10172300D205120122E4D20512012217AD051201DE
:1017330022E2AF05120122FDD905120122D9D305F8
:10174300120122E9D30512012206D4051201229ABD
:10175300D405120122C6B20512012260B30512019B
:101763002256B50512012263C90512012299C90542
:1017730012012209CA051201226CCA05120122DCD8
:10178300CA05120122F4FF01120122F7FF0112011F
:1017930022209605120122429605120122D49605B3
:1017A300120122D29705120122C39905120122BF09
:1017B300D504120122BCD70412012242D80412011B
:1017C300224DD9041201220DDA0412012282DA0415
:1017D300120122F4DA04120122F7DA0412012205BB
:1017E300DB0412012219DB0412012231DB04120192
:1017F3002249DB0412012257DB041201226FDB04AE
:1018030012012230D605120122AAD605120122BAEC
:10181300D605120122CAD605120122E3D60512010A
:10182300227FC505120122B0C505120122DAC505C2
:1018330012012297C605120122B7C6051201220F13
:10184300C705120122B99E04120122C79E04120188
:10185300220D9F04120122609F04120122A89F04FB
:1018630012012202A00412012223A004120122FA6F
:10187300A20412012208A30412012264A304120188
:101883002297A304120122AAA30412012235A4045D
:10189300120122CCA40412012247A5041201227EC4
:1018A300A50412012204A60412012259A60412015E
:1018B30022B4A604120122C6A604120122F7A6042A
:1018C30012012200A70412012239A804120122D016
:1018D300CC051201222FCD05120122CACD0512011A
:1018E3002230CE051201228D8D05120122C08D05F5
:1018F300120122E68E051201220B8F05120122CC62
:101903008F05120122A4900512012284CE05120133
:10191300224DCF05120122A5CF05120122BFCF050B
:10192300120122B5BA05120122FABA0512012238B0
:10193300BB05120122D3BC051201226CFF04120164
:101943002287FF0412012297FF041201226CD5059E
:10195300120122A8D405120122F19404120122CD0E
:1019630095041201221096041201224A96041201D0
:1019730022B696041201220E97041201227E9704C6
:101983001201224F9804120122399904120122B044
:101993009904120122469B04120122D19B041201D5
:1019A30022419C04120122BB9C04120122D29C04FA
:1019B300120122FD9D04120122509E041201223ABB
:1019C300E60412012257E60412012243E70412013E
:1019D300228CE704120122ACE704120122E8E70497
:1019E30012012241E8041201227DE804120122C5FA
:1019F300E8041201225FEB04120122E6AB0212019A
:101A03002201B102120122F8B3021201221EB40212
:101A130012012247B402120122F5B402120122D6A6
:101A2300B602120122F1B7021201220AB802120110
:101A33002200BD0212012239BD021201227DBD0224
:101A43001201228ABE021201225C36001201229088
:101A53003600120122CB36001201223D370012015B
:101A6300220438001201221B3800120122F7380029
:101A7300120122EC3C00120122FC3C001201222D37
:101A83003D00120122003E00120122623E001201BB
:101A930022653E00120122A63E001201220D3F00E4
:101AA300120122E94000120122A04100120122F298
:101AB3004100120122F941001201220742001201E2
:101AC300221742001201225542001201226E4200E7
:101AD3001201228542001201221143001201222C1D
:101AE30043001201226245001201229055001201A7
:101AF300228B5900120122435D001201223B5E003A
:101B0300120122CF5E00120122F65F0012012200B1
:101B13008003120122348103120122618103120125
:101B230022B08403120122E98403120122FA8403FE
:101B3300120122168603120122278603120122B7FD
:101B43008603120122C786031201228E8B03120120
:101B530022328C03120122408C031201226D8C036A
:101B6300120122D28C03120122AA8E031201227FB8
:101B73008F03120122D4EB0312012221F00312017D
:101B830022A5F203120122DEF203120122EFF20375
:101B93001201220EF30312012238F4031201224927
:101BA300F403120122A5F40312012236F5031201F4
:101BB30022E5F50312012227BA0412012235BB04E0
:101BC30012012252BB041201222DBD041201225123
:101BD300BE04120122EDBF041201221CDA05120118
:101BE30022F0AF05120122D0CF0512012247D905F9
:101BF3001201225A900312012266950312012278E0
:101C0300C105120122AEFF01120122A8D90512015A
:101C1300220EA20512012248D80512012272D8050C
:101C2300120122BBFF03120122D4D9051201223A69
:101C3300DA05E066701008A3E066700A08A3E066A0
:101C4300700408A3E06622C008C3E096F50808A361
:101C5300E096420808A3E096420808A3E0964208EB
:101C6300A2D265D033E5087001D3D00822C3E7962A
:101C73000809E7960809E7960809E79622C3E0965C
:101C830008A3E09608A3E09608A3E09622C008C341
:101C9300E096F50808A3E096420808A3E0964208F8
:101CA30008A3E09645087001D3D00822080808E687
:101CB30030E711122569121CC7080808C64480C6FC
:101CC30018181822181818E9799EC608CAC608CB2E
:101CD300C608CCC6C370207996CACBCC7019798E4E
:101CE300CBCC70137986CC700EF9802ACA33CACB59
:101CF30033CBCC33CC331930E7F2CCCBCA335014CB
:101D03007004EA30E00DE4CA3ACACB3BCBCC3CCCFE
:101D1300500209C3E913C6CC182313C6CB18C6CA8D
:101D230018C6F922121D6720F01430E72B74FFFC4C
:101D3300FBFA747F8022E4FCFBFA7480801AB4807F
:101D430008BC00F2BB00EF800F50EBF9E4C39AFA32
:101D5300E49BFBE49CFCE499C6CC18C6CB18C6CA2A
:101D630018C6F922E4C9C608CAC608CBC6D33303CA
:101D730008CCC63392F0C3947F402E94184019C9FF
:101D8300B90704CACBCC225025C309CA33CACB3303
:101D9300CBCC33CC33D9F422F4600DC9CCC313CBF1
:101DA30013CBCA13CAD9F6CC22E4FCFBFA2214FCE7
:101DB300FBFA22E62618461846184622E727194753
:101DC3001947194722181818E60846087009E62625
:101DD300087005E633F4220822191919E70947099F
:101DE3007009E727097005E733F4220922E608465C
:101DF30008C3134608336002E633F422E7094709B0
:101E0300C3134709336002E733F422121DF0602540
:101E1300121DFF6020121DB67003021DBF080808C3
:101E2300E76670101819E766700A1819E7667004F8
:101E33001819E76622F422121DF0601C121DFF60C0
:101E430017121DB67007121DBF7001D322C0D01226
:101E53001DBF7006D0D0B322C32233D0D05014306C
:101E6300E0F6C3E7960809E7960809E7960809E745
:101E730096B32220E0D5E6970809E6970809E69786
:101E83000809E697B322121DF0601B121DFF6016AE
:101E9300121DB67007121DBF600CB322C0D0121DF5
:101EA300BF7005D0D022C32233D0D0501330E0EB23
:101EB300C3E7960809E7960809E7960809E7962213
:101EC30020E0E4E6970809E6970809E6970809E69B
:101ED300972200121DF0604F121DFF6012E754801D
:101EE30066F6121DC87011121DBF703B090909F473
:101EF300F618F618F618F622121DDC7015121DB628
:101F030008080860EAE6447FF618768018E4F618B5
:101F1300F622121DB66016121DBF7012E4F608F603
:101F230008F608E65480F609090918181822EAC0C9
:101F3300E0EBC0E0ECC0E0EDC0E0E687F0A4FBAC72
:101F4300F008E687F0A42CFCE435F0FA1809E687DC
:101F5300F0A42C4B60027401CA35F0FCE433FB0996
:101F6300E687F0D2F7A42CCB35F0FC1908E687F00E
:101F7300A42BCC35F0FBE433FD0819E687F0D2E758
:101F8300A42C4ACB35F0CD3400FC09E687F0D2E728
:101F9300A42DCC35F0FDE433FA0918E687F0D2F727
:101FA300A42CCD35F0CA3400FC08E687F0D2E7D282
:101FB300F7A42ACC35F07A7E20E70B0ACB33CBCDBE
:101FC30033CDCC33CC33CB3350147004ED30E00E2F
:101FD300D2F1E4CD3DCDCC3CCC3B5005DA05C2F18A
:101FE300EB547FC63308E63392F0FBE73309E7335C
:101FF300C39A502D2B70190C0D4C4D70151806E615
:1020030008C333700D20F10AA2F013F6E418800B15
:102013004024E4F630F002768018F618F618F680BD
:1020230024D33B14501074FFA2F013F6187680E407
:1020330018F618F6800FA2F013F618E63303F61815
:10204300ECF618EDF6D0E0FDD0E0FCD0E0FBD0E0FC
:10205300FA22121DFF6046121DF0603DE968700808
:10206300F618F618F618F622748067F71220890915
:102073000909748067F722121DF0601D121DFF709D
:1020830005191919801A121DC8701F121DDCC3709F
:1020930003E66733191919400718181822080808A6
:1020A30074FFF618F618F618F622121DDC601712E4
:1020B3001DBF702192F0121DB67019501720F01435
:1020C300080808090909E7F61819E7F61819E7F6E1
:1020D3001819E7F622121DB660E6E869701F0808B2
:1020E300E62480F608E436F618547FB47F0CE654F1
:1020F300806007F6E418F618F622181822E9C6CC11
:1021030008C6CD08C6CE08C6CFC0E0E8C0E0EAC026
:10211300E0EBC0E009E9F809E7FA09E7FBE6F9189B
:10212300E6F8C3EC98ED99EE9AEBC2E7F5F0EFC24F
:10213300E795F0500E600CEBCFFBEACEFAE9CDF950
:10214300E8CCF8EAA2E7D2E7FAEB33FB13F5F0EEBB
:10215300A2E7D2E7FEEF33FFC5F013A2E730E601B3
:10216300B313C5F0C3C0E0C0F07F00C39BFB605E48
:102173009418600F401D14601AD0E023F9D0E0F8E2
:1021830002225B8AF0E9486003D2F0E4AFF0FAF987
:10219300F8803BEB30E40D89F0EA6003D2F0E4AF62
:1021A300F0F9CAF8EB30E30D88F0EF6002D2F0AF3C
:1021B300F0E4CAC9F8EB54076014FBC3EA13FAE965
:1021C30013F9E813F8EF135002D2E0FFDBEDD0E090
:1021D300C0E030E739C3E49FFFF5F0EC98FC42F030
:1021E300ED99FD42F0EE9AFE42F0D0E0F9D0E0F82E
:1021F300E5F0607AE923F9EE20E742D8028067C36D
:10220300EF33FFEC33FCED33FDEE33FE80EAEC28D5
:10221300FCED39FDEE3AFED0E023F9D0E0F84002C0
:10222300801BC3EE13FEED13FDEC13FCEF13500202
:10223300D2E0FF08B800067F7F74FF802EEF335093
:10224300178CF020F00260100CBC000C0DBD0008D0
:102253000EBE000408E860DFE933E813FFEE231342
:10226300FE4F4D4C8008E95480FFE4FEFDFCEE3345
:10227300EF33F47004FCFD7E80D0E0FBD0E0FAD0B5
:10228300E0F8D0E0CFC618CEC618CDC618CCC6F934
:1022930022121DF0700418181822121DFF700D74FD
:1022A300FFF61819F61819F61819F622E75480667E
:1022B300F6121DB6700F121DBF70F014F608F60863
:1022C300F608F680D1121DBF700CF608F60876806A
:1022D30008E6447F80EC121DDF700C121DCB60BF3B
:1022E300E65480F6E480BB121DCB700519191980E2
:1022F300A5E869700C763F18768018F618F6E8F9A9
:1023030022E6CDC0E018ECC0E0E633CD33CDD313E5
:10231300F6E719FCE7191933CC33C3947F400ECD8C
:102323009D502408E65480F6E418F6800FF4043D2B
:1023330014501408E6447FF6187680E418F618F66D
:10234300D0E0FCD0E0FD22CCD313CCFD18E4C6CB07
:10235300C0E018E4C6CAC0E00808ED08C633E613B7
:10236300F618E433C675F003C3CA97CA09CB97CBF3
:10237300199C40047D08802EBD000302243D16B63F
:10238300FF050606081618C3CA33CACB33CB33CAB4
:1023930027CA09CB37CB193CC37D08803E187D087B
:1023A30020E75CC633C6CA33CACB33CB33DDF1D5A2
:1023B300F0EB30E77BCA97CA09CB974ACB199C400D
:1023C3006F4B7025E620E0218066187D08C3CA970D
:1023D300CA09CB97CB199CD3C633C6CA33CACB33EE
:1023E300CB3350C9DDE7D5F0E1D3E4C636C608C622
:1023F30036C608C636C608C636C61818188031C38E
:10240300CA97CA09CB97CB199CB34097C633C6CAA0
:1024130033CACB33CB33DD34D5F02EC6A2E0C6406E
:10242300C8CA27CA09CB37194A70BECB3CB480B996
:102433000808E63308E633601F181818D0E0FAD00E
:10244300E0FBD0E0FCD0E0FD22187D08CA27CA09D2
:10245300CB37CB193CD3808013F618E4B67F11F643
:1024630018B6FF0EF618C60470D20808768080CA24
:10247300F618F618F680C5080808EAC0E0EBC0E0D5
:1024830086F0E7A4FA180986F0E7A42AFA18098661
:10249300F0E7A42AFA180986F0E7A42AFA1986F0C5
:1024A300E7A4FBE5F02AFA190886F0E7A42BFBE57D
:1024B300F03AFA190886F0E7A42BFBE5F03AFA188C
:1024C300180986F0E7A4C5F02BFBE43AFA1908E7EC
:1024D300C5F0C6A426F6E5F03BFBE43AFA1886F00D
:1024E300E7A4F6E5F00826F6E43B08F6E43A08F636
:1024F300D0E0FBD0E0FA22E4CFC0E0E4CEC0E0E4D9
:10250300CDC0E0E4CCC0E075F020E626F608E63363
:10251300F608E633F608E633F6181818EC33FCED44
:1025230033FDEE33FEEF33FFC3EC9709ED9709EE6E
:102533009709EF97191919400FFFEC97FC09ED97CD
:10254300FD09EE97FE191906D5F0BFECF709EDF773
:1025530009EEF709EFF7191919D0E0FCD0E0FDD027
:10256300E0FED0E0FF22181818E4C396F608E496BC
:10257300F608E496F608E496F6226016080808C6FC
:10258300C313C618C613C618C613C618C613C6D5B2
:10259300E0EA227009080808226016181818C6C352
:1025A30033C608C633C608C633C608C633C6D5E025
:1025B300EA22E627F60809E637F60809E637F608B9
:1025C30009E637F622E026F608A3E036F608A3E08C
:1025D30036F608A3E036F622E026F008A3E036F04C
:1025E30008A3E036F008A3E036F022C3E697F60826
:1025F30009E697F60809E697F60809E697F622C36F
:10260300E0C696F608A3E0C696F608A3E0C696F6DB
:1026130008A3E0C696F622C3E096F008A3E096F07E
:1026230008A3E096F008A3E096F022E657F608091F
:10263300E657F60809E657F60809E657F622E05684
:10264300F608A3E056F608A3E056F608A3E056F60C
:1026530022E056F008A3E056F008A3E056F008A3E2
:10266300E056F022E066F608A3E066F608A3E0660B
:10267300F608A3E066F622E0F608A3E0F608A3E076
:10268300F608A3E0F622E6F008A3E6F008A3E6F0D6
:1026930008A3E6F022E0FAA3E0FBA3E0FCA3E0FD3D
:1026A30022EAF0A3EBF0A3ECF0A3EDF022E0F8A311
:1026B300E0F9A3E0FAA3E0FB22E8F0A3E9F0A3EA40
:1026C300F0A3EBF022CAC0E0E6F0A308DAFAD0E008
:1026D300FA22CAC0E0E0A3C582CCC582C583CDC5BA
:1026E30083F0A3C582CCC582C583CDC583DAE6D08A
:1026F300E0CA22C3E498F8E499F91227378026C385
:10270300E49AFAE49BFBE920E7E9122737E498F817
:10271300E499F922C3E498F8E499F9122737E49885
:10272300F8E499F9C3E49AFAE49BFB22EB20E7CFA0
:10273300E920E7E0B90010BB0008E88AF084F8AAB2
:10274300F022E4FBC8FA22EB70227B10C833C8C91D
:1027530033C9335007C39AC3DBF280069A50012A68
:10276300DBEAC833F4C8C933F4C9FA2275F008E4C4
:10277300C833C8C933C933C99AC99B5004C92AC9C4
:102783003BD5F0ECFBC833F4C8E4C9FA22600D086A
:10279300C6A2E713C618C613C6D5E0F322600C0819
:1027A300C6C313C618C613C6D5E0F422700422604C
:1027B3000D18C6C333C608C633C6D5E0F4182225A0
:1027C3001810AF08F518400C15198008F5184002C9
:1027D3001519D2AF2200C0D0251810AF08F5185034
:1027E3000C05198008F51850020519D2AFD0D02274
:1027F3002518F58210AF08F518400C15198008F557
:102803001840021519D2AF851983222518F582E4E1
:102813003519F583222518F8E43519F9222518FA14
:10282300E43519FB222518FCE43519FD22E4732550
:1028330018C582C0E0E51934FFC583C0E0E518C3BD
:10284300958224F810AF088583198582188008853E
:102853008319858218D2AFCEF0A3E520F0A37808C0
:10286300E608F0A3DEFAEFF0A3E58124FAF8E60820
:10287300F0A3E608F0A3E608F0A30808E608F0A32F
:10288300E608F0A315811581D0E0FED0E0F81581AC
:1028930015811581E8C0E0EEC0E0222518C582C08D
:1028A300E0E51934FFC583C0E0E518C3958224F938
:1028B30010AF08858319858218800885831985825E
:1028C30018D2AFCEF0A3E520F0A37808E608F0A372
:1028D300DEFAEFF0A3E58124FBF8E608F0A3E608AF
:1028E300F0A30808E608F0A3E608F0A31581158114
:1028F300D0E0FED0E0F815811581E8C0E0EEC0E03D
:1029030022851983851882E0A3FEE0A3F5207808C9
:10291300E0A3F608DFFAE0A3FFE0A3C0E0E0A3C072
:10292300E0E0A3C0E0E0A3C0E0E0A3C0E010AF0894
:102933008582188583198008858218858319D2AF0B
:10294300D083D08202011F851983851882E0A3FEFC
:10295300E0A3F5207808E0A3F608DFFAE0A3FFE0A0
:10296300A3C0E0E0A3C0E0E0A3C0E0E0A3C0E010A8
:10297300AF08858218858319800885821885831995
:10298300D2AFD083D08222C0D02518C582C0E0E563
:102993001934FFC583C0E0E518C3958224F310AF53
:1029A300088583198582188008858319858218D242
:1029B300AFC8F0A3E9F0A3EAF0A3EBF0A37908E72B
:1029C30009F0A3D8FAECF0A3EDF0A3EEF0A3EFF037
:1029D300A3D0E0F0A3D0E0F0A3D0E0F0A3E520F093
:1029E300A3E5F0F0A322851983851882E0C0E0A354
:1029F300E0F9A3E0FAA3E0FBA37808E0F608A3DF7D
:102A0300FAE0FCA3E0FDA3E0FEA3E0FFA3E0C0E047
:102A1300A3E0C0E0A3E0F5D0A3E0F520A3E0A3F595
:102A2300F010AF088583198582188008858319857E
:102A33008218D2AFD082D083D0E0F8D0E0327404D1
:102A43008006740280027401C0E0F4041227F3D0FC
:102A5300E01226C8227404800474028000CCC0E013
:102A6300EDC0E0E518C39CCCAD1950011D10AF06B5
:102A73008C188D1980068C188D19D2AF1226D5D0DB
:102A8300E0FDD0E0FC22D083D082E9C0E0E493A350
:102A9300C386F0C5F095F0F908E493A386F0C5F07A
:102AA30095F0700BE493A3C3994005E9048002A356
:102AB300E475F002A42582F582E5F03583F583D031
:102AC300E0F9E493A3C0E0E493C0E022D083D08292
:102AD300ECC0E0EDC0E0E493A3FCE493A3FDED4C74
:102AE300600D122B1BEC24FFFCED34FFFD80EFE4A3
:102AF30093A3FCE493A3FDED4C600D122B5AEC243D
:102B0300FFFCED34FFFD80EFD0E0FDD0E0FCE4936B
:102B1300A3C0E0E493C0E022C0E0C3E4939608744A
:102B230001939618400FE493667008087401936646
:102B33001870007019A3A3C3E493960874019396C5
:102B430018A3A3400DD0E0D0E0D0E0022B0BA3A349
:102B5300A3A3A3A3D0E022C0E0C0F088F0E493666F
:102B630070080874019366187000A8F0A3A3700B93
:102B7300D0F0D0E0D0E0D0E0022B0BA3A3D0F0D074
:022B8300E0224E
:102B880074F612289EEAFEEBFF8C088D09EE2434B9
:102B9800F8E43FF9E8FCE9FD122CBAE0FAEE243734
:102BA800F582E43FF583E0F88508F0A4C885F00ACB
:102BB8008509F0A4250AF9EA28F8E439F97A257B89
:102BC80000122737EA8C828D83F0FA131313541FEF
:102BD800F8EE28F8E43FF9E8245DF582E439F58356
:102BE800E0C0E074075AF8D0E0B800028004C313CC
:102BF800D8FCA2E05003EA8020EE2436F582E43FB8
:102C0800F583E0F5F0EA84A8F0EE28F8E43FF9E867
:102C18002438F582E439F583E0F97F0302294A7400
:102C2800F512289EEAFEEBFFEE2434F582E43FF528
:102C380083E0C0E0122CBAD0E0F08E828F83A3A389
:102C4800A3A3A3E0FAA3E0FB8E828F83A3A3A3A38D
:102C5800A3A3A3E0C39AF508A3E09BF509EE247F9C
:102C6800F8E43FF9880A890B8882F583E0640170EB
:102C78002CEE2480F582E43FF583EA2401F8E43B56
:102C8800F9E0687003A3E06970137C1A7D08EEFA16
:102C9800EFFB121005850A82850B83E4F0AC08ADC2
:102CA80009EEFAEFFB122B88E9F912352B7F0402A3
:102CB800294AEE2435F582E43FF58322C082C08399
:102CC800851882851983E0F8A3E0F9C3EA9CEB9D97
:102CD8005010C3EC98ED99401BC3EA98EB99501437
:102CE800800EC3EA98EB994007C3EC98ED9940042D
:102CF800790180027900D083D08222EAC39CFAEB62
:102D08009DFB2274ED12289E9004C3E064086005C0
:102D1800E06407702C9061C8E060269004F1E0F848
:102D280074FF68601CE875F00DA4C8AAF02AF9744D
:102D3800F328FE740439FF8E828F83A3A3A3E07067
:102D4800057900022EADEE2468F50EE43FF50F90EC
:102D58006060E0850E82850F83F07510B4751108E8
:102D6800750800750900E5D914F50AE5D95403F585
:102D78000B601FEE2483F50CE43FF50D7403650B1F
:102D88006059E50A6017EE2467F582E43FF583E0B1
:102D9800700B793DEEFAEFFB12103580A49008AF66
:102DA800E064016023850C82850D83E060047A0469
:102DB80080027A00E50AC39AFA95E0FB120DE98AC7
:102DC800088B09EA45097006121323022D49850C60
:102DD80082850D83E070048A108B117A008014E5D7
:102DE800D9C0E0EAF8E51028F582E43511F583D07A
:102DF800E0F00AEAC3950A40E6850C82850D83E077
:102E0800602874FC250AF50A7810122A45AC0AA92C
:102E18000BEEFAEFFB1210EF74021227D8E9700AD2
:102E2800AA08AB091218D5022D9A7403650B6054D1
:102E3800850A0C750D00780C122A45AC10AD11AA44
:102E480008AB091210B374021227D8850E82850FB9
:102E580083E0F87480687005750C7F8002880CE543
:102E68000CF50D780D122A49780B122A49A90AACDB
:102E780008AD099004F1E0FA7B00120C0974021203
:102E880027D8801C9004C3E06408AC10AD11700909
:102E9800EEFAEFFB12111F8007EEFAEFFB1211D9C1
:102EA80012132F79017F0C02294A74F312289E7499
:102EB800FC1227C2EAFEEBFF8909A2AFE433F5084A
:102EC800C2AFEE2463F50AE43FF50B8010AA0AAB03
:102ED8000B12106B1218D5900821E004F0850A82B5
:102EE800850B83E0F8A3E0F9E849602DE82402FAAD
:102EF800E439FBEA2402F50CE43BF50D780C122AC0
:102F0800458A828B83E0FCA3E0F9EEFAEFFB12100E
:102F18005F74021227D8E960B4900821E0604D90F0
:102F28000822E0F8900821E0C398500C7402650963
:102F3800703A900823E060348E828F83A3A3A3A302
:102F4800E0851882851983122F84740212280EE8EE
:102F5800122F84900820E028F07402122828AA185A
:102F6800AB197901120C69900821E4F0E508A2E098
:102F780092AF74041227D87F0602294AF0A3E4F01E
:102F8800900821E0F82200008521878522C622C00A
:102F9800E074EB12298AA2AFE433F508C2AF759B3F
:102FA80000906182E0A2E05030E591A2E0502A75DD
:102FB80091FE74016521702112312A1212331231E7
:102FC80018122A581232D574041227D8E9640170ED
:102FD800057901121281122D0B906182E0A2E55051
:102FE8005DE591A2E550577591DF9004C3E0640751
:102FF8006005E06408702F12312A74016521703E63
:10300800121233123118122A581232D574041227A8
:10301800D8E96401700579011212817901EEFAEF9D
:10302800FB122EB28018E0640D70139004E5E004E2
:10303800F064287002E4F07A00E0F9121335906128
:1030480082E0A2E640030230EDE591A2E6400302E9
:1030580030ED7591BF9004C3E06405700812121B2F
:10306800121227800312122175210012129FE99073
:1030780004C4F07900121281120F277A017B0090A4
:1030880004C2E0F91218A5907803E06442705690E3
:1030980008B3E014F0704EC2AF1230A400782AD002
:1030A800E0F618D0E0F6E59F5407F87005750DFFB7
:1030B8008003750D7FC4C0E07829E6F50A08E65557
:1030C8000DF50B740B780A1227A0D0E0250AF890AA
:1030D8006270E0A2E740F8E8C333906272F0906251
:1030E80070E0D2E0F0906181E0A2E35009E5E9A246
:1030F800E3500375E9F7A3E0A2E75009E591A2E7D9
:10310800500375917FE508A2E092AF7F080229E994
:103118008E828F83E0F8A3E0C82416F582E438F5A0
:1031280083229004F1E0F875F00DA4C8AAF02AF9FA
:1031380074F328FE740439FF22C0E0C0D0C082C0F6
:1031480083906183E0A2E05009E5BFA2E0500375D7
:10315800BFFEE0A2E15009E5BFA2E1500375BFFD43
:10316800E0A2E25009E5BFA2E2500375BFFBE0A26E
:10317800E35009E5BFA2E3500375BFF7E0A2E450AE
:1031880009E5BFA2E4500375BFEFE0A2E55009E5E9
:10319800BFA2E5500375BFDFE0A2E65009E5BFA274
:1031A800E6500375BFBFD083D082D0D0D0E032C004
:1031B800E074F212298AE5A7A2E4500FE5A1A2E47F
:1031C800500953A7EF75A1EF12320BE5A7A2E550FE
:1031D8000CE5A1A2E5500653A7DF75A1DFE5A7A27C
:1031E800E15009E5A1A2E1500375A1FDE5A7A2E21E
:1031F800500CE5A1A2E2500653A7FB75A1FB7F0185
:103208000229E974F812289E7521019004C3E0642C
:103218000670077A007B00121203A2AFE433FED2D5
:10322800AF9004C9E0640170187A207B009004C252
:10323800E0F91219E37A207B009004C2E0F9121831
:10324800AB906182E0D2E6F09008B0E0602185C6DC
:103258002280169004C8E064017008E5C654F8445A
:1032680005F5C653BEFC122F907401652160E4EE8B
:10327800A2E092AF7F0102294A0000008E238F242A
:10328800858228858327851882851983E0CEA3E067
:10329800CF852882852783EBC9EAC8EDCBECCA75B0
:1032A800F010C3E833C8E933C9EA33CAEB33CBC3F8
:1032B800EA9EF526EB9FF525B35004AB25AA26EC2C
:1032C80033CCED33CDD5F0DAAE23AF242274F1122E
:1032D800289E8A088B098C0A8D0B9095E77808122E
:1032E8002641740F12280E780C12267A9095E778EA
:1032F8000C1226417808790C121C70909603501015
:103308007808790C1225EE7808121C904014800E6B
:10331800780C79081225EE780C121C90500479016B
:10332800800279007F0802294A74ED12289E8A08D3
:103338008B098C0A8D0B9095E77808122641741337
:1033480012280E780C12267A9095E7780C122641EE
:10335800780C7908121C7040117808790C1225EE47
:10336800AA08AB09AC0AAD0B8022751000751100D4
:103378007512007513017810790C1225EE78107902
:10338800081225B5AA10AB11AC12AD137F0C022997
:103398004A9095E7780812267A8A828B83780812F1
:1033A80026547F0402294A74F512289E8C828D8344
:1033B800780812267A8A828B83780812261A1234A1
:1033C80003C3E098F0A3E0991233F5401E909637B6
:1033D800780812267A8A828B8378081225DB8E82F7
:1033E8008F83E02420F0A3E0344EF080A4F08E8296
:1033F8008F83C3E09420A3E0944E22EA2404F8E4E7
:103408003BF9E8FEE9FF8C828D83A3A3A3A3E0F830
:10341800A3E0F98E828F832274F512289EE9FE902C
:10342800083CE0FAA3E0FBEE29F8E433F974B72886
:10343800F582749139F583E02AF508A3E03BF50994
:103448007808122A459095FF122698123284740241
:103458001227D88A088B098C0A8D0B7410780812E9
:10346800257DAA08AB097F0402294A74F112289E17
:103478008A0C8B0D8C0E8D0F741112280E122A5C7B
:10348800741112280EE02401F508A3E03400F509B0
:10349800E4F50AF50B780C790812247A9095E3780C
:1034A8000812267A780C790812247AAA0CAB0DAC8B
:1034B8000EAD0F12328474021227D88B09EA45091F
:1034C80060047A0180027A00EC2AFCE43DFD741362
:1034D80012280EE0F8A3E0F9E8FEE9FFECF8EDF9B0
:1034E8007A717B0212273788088909E4F50AF50BF7
:1034F8008E828F837808122689ECF8EDF97A717B31
:10350800021227378A088B09740578081227AF8EAC
:10351800828F83A3A3A3A3E508F0A3E509F07F089E
:1035280002294AC082C083E9906000F0D083D0822B
:1035380022C0E074F212298AA2AFE433FED2AFC2ED
:10354800C0E5D1A2E4500675D10F1217FDEEA2E036
:1035580092AF7F010229E9C0E074F212298AA2AF72
:10356800E433FED2AFE589A2E14006E589A2E25044
:103578000312177F758900758900C2C5EEA2E09213
:10358800AF7F010229E9C0E074F212298AA2AFE4F0
:1035980033FED2AFE58BA2E0500312177F758B0084
:1035A800C2E8EEA2E092AF7F010229E9C0E0C0D0F4
:1035B800E8C0E0A2AFE433F8D2AFC2C7E8A2E09215
:1035C800AFD0E0F8D0D0D0E032C0E0C0D0E8C0E062
:1035D800E9C0E0EAC0E0EBC0E0C082C083A2AFE48B
:1035E80033F9D2AF901150E0F8901151E068700BA8
:1035F800539AFB9011527401F0802EC2E990115039
:10360800E0F8740128901150F0E8FA7B0074D02A91
:10361800F58274103BF583E0F5C1901150E0C39436
:103628008040069011507400F0E9A2E092AFD08378
:10363800D082D0E0FBD0E0FAD0E0F9D0E0F8D0D0EA
:10364800D0E032C2AF0200002202011FFFFFFFFFDD
:10365800FFFFFFFFEAF8EBF9E824FFFAE934FFFB84
:10366800E84960217800790078DC7905C3E894019D
:10367800E99400A2D265D03340DA00E824FFF8E9E3
:1036880034FFF980E702011F74F71228328908789D
:1036980000800108E8C395085022E8FE7F00EA2E62
:1036A800F582EB3FF583E0F9E8FE7F00EC2EF5822A
:1036B800ED3FF583E06960DB7900800279017F01E5
:1036C80002290474F0122832E9FE7C00750800759E
:1036D8000900750A00750B00803A909663780C1201
:1036E800267A7808790C12247AECF87900EA28F519
:1036F80082EB39F583E0F87900E824D0F50CE93459
:10370800FFF50DE50D3395E0F50EF50F7808790C0A
:103718001225B50CECC39E500FECF87900EA28F599
:1037280082EB39F583E070B2AA08AB09AC0AAD0B9D
:103738007F0802290474F712283274EF1227C29006
:103748009144AC18AD1974111226D578FE791988F0
:103758008289837430F088828983A3A882A98388A8
:103768008289837478F088828983A3A882A983EAEE
:103778002406FA50010B7E06806AEA24FFFAEB342D
:10378800FFFB8A828B83E0C4540FFC7D008518827E
:10379800851983E5822CF582E5833DF583E0C0E059
:1037A80088828983D0E0F088828983A3A882A9834C
:1037B8008A828B83E0FC7D00EC540FFCED5400FD05
:1037C800851882851983E5822CF582E5833DF5838A
:1037D800E0C0E088828983D0E0F088828983A3A84A
:1037E80082A9831EEE7093888289837400F07AFE22
:1037F8007B1974111227D87F01022904C082C08363
:103808007C457D197AB679801219ADE9D083D082CA
:1038180002011F74F7122832E9FEEE60030238B67F
:103828009019457404F09019467400F09019477483
:1038380000F09019487400F07C757D937A497B19E3
:10384800121C1D9019557400F07C5B7D957A567B8F
:1038580019121C1D90195D7400F07C0D7D00790013
:103868007A5E7B191218639019787400F0901979B0
:103878007400F07C787D0079007A7B7B19121863DC
:103888009019F37400F0A37400F09019F57400F027
:103898009019F67400F09019F77400F09019F87404
:1038A800F4F0A37401F09019FA7400F0802B7401FD
:1038B8006E70267C0D7D0079007A5E7B1912186384
:1038C8009019787400F09019797400F07C787D0074
:1038D80079007A7B7B191218637C007D0079007A65
:1038E800097B041215F9E9121A617F01022904748F
:1038F800F412283274D31227C2901945E0F50875DE
:1039080009007808122A457C9E7D8E7402122820B0
:10391800121C1D74021227D8AA18AB191218458A4E
:10392800088B09AC08AD09AA18AB1912180F7A64EC
:103938007B00121A49901946E0F5087509007808C5
:10394800122A457C237D8F7402122820121C1D74B4
:10395800021227D8AA18AB191218458A088B09AC85
:1039680008AD09AA18AB1912180F7A647B00121A4D
:1039780049901947E0F5087509007808122A457C2E
:10398800EF7D8E7402122820121C1D74021227D893
:10399800AA18AB191218458A088B09AC08AD09AAF0
:1039A80018AB1912180F7A647B00121A499019483B
:1039B800E0F5087509007808122A457CE67D8F74C1
:1039C80002122820121C1D74021227D8AA18AB193B
:1039D8001218458A088B09AC08AD09AA18AB191248
:1039E800180F7A647B00121A497508497509197805
:1039F80008122A457C427D907402122820121C1D50
:103A080074021227D8AA18AB191218458A088B090C
:103A1800AC08AD09AA18AB1912180F7A647B00120A
:103A28001A49901955E0F5087509007808122A45D1
:103A38007C2B7D907402122820121C1D7402122700
:103A4800D8AA18AB191218458A088B09AC08AD0911
:103A5800AA18AB1912180F7A647B00121A49750854
:103A6800567509197808122A457C147D907402123B
:103A78002820121C1D74021227D8AA18AB19121874
:103A8800458A088B09AC08AD09AA18AB1912180F9A
:103A98007A647B00121A4990195DE0F508750900EF
:103AA8007808122A457CFD7D8F7402122820121C8A
:103AB8001D74021227D8AA18AB191218458A088B48
:103AC80009AC08AD09AA18AB1912180F7A647B0063
:103AD800121A4975085E7509197808122A457CB9C1
:103AE8007D8E7402122820121C1D74021227D8AA77
:103AF80018AB191218458A088B09AC08AD09AA1821
:103B0800AB1912180F7A647B00121A4975080075F0
:103B18000900023BAC9092FA7420122828740D1206
:103B280026D5750A0C750B00780A122A45A808A92B
:103B380009E875F00CA4C8AAF075F000A42AFA7573
:103B4800F00CE9A42AF9747B28FC741939FD742255
:103B580012282012184B74021227D8742012281821
:103B6800880A890B780A122A457808122A457C2D7A
:103B78007D937404122820121C1D74041227D8AADD
:103B880018AB191218458A0A8B0BAC0AAD0BAA1888
:103B9800AB1912180F7AC87B00121A490508E508F4
:103BA80070020509901978E0F87900C3E50898E5EE
:103BB8000999A2D265D0335003023B1D9019F31224
:103BC8002A5C7C587D8E7402122820121C1D7402F7
:103BD8001227D8AA18AB191218458A088B09AC08FD
:103BE800AD09AA18AB1912180F7A647B00121A498A
:103BF8009019F5E0F5083395E0F5097808122A459B
:103C08007C597D907402122820121C1D7402122700
:103C1800D8AA18AB191218458A088B09AC08AD093F
:103C2800AA18AB1912180F7A647B00121A49901956
:103C3800F7E0F5087509007808122A457C097D8F98
:103C48007402122820121C1D74021227D8AA18AB5D
:103C5800191218458A088B09AC08AD09AA18AB19BE
:103C680012180F7A647B00121A499019F8122A5C0C
:103C78007C2E7D8E7402122820121C1D74021227BD
:103C8800D8AA18AB191218458A088B09AC08AD09CF
:103C9800AA18AB1912180F7A647B00121A499019E6
:103CA800FAE0F5087509007808122A457CD47D8E5B
:103CB8007402122820121C1D74021227D8AA18ABED
:103CC800191218458A088B09AC08AD09AA18AB194E
:103CD80012180F7A647B00121A49742D1227D87FA4
:103CE80004022904C082C083901955E0F9D083D01A
:103CF8008202011FC082C083121A73E96401701026
:103D0800901A7EE064027004790180127900800EB6
:103D1800901A89E064067004790180027900D083E2
:103D2800D08202011F74F412283274F41227C2EAF6
:103D3800FEEBFF121A73E964016003023DF6750891
:103D48000080020508901978E0F8E508C398503318
:103D5800AA18AB19A908121A85E96027750A0C7503
:103D68000B00780A122A45EEFCEFFD740212282097
:103D780012185D74021227D8E960C8E50890197A0C
:103D8800F0806B75080C7509007808122A45EEFC5E
:103D9800EFFD901979E0F87900E875F00CA4C8AA4D
:103DA800F075F000A42AFA75F00CE9A42AF9747BDE
:103DB80028FA741939FB12184B74021227D8901973
:103DC80079E090197AF0901979E02401F090197946
:103DD800E075F00A84E5F0901979F0901978E0C35D
:103DE800940A5007901978E02401F0121A61740CB3
:103DF8001227D87F0402290474F41228328908EAA9
:103E0800FEEBFF121A73E964017048901978E0F824
:103E1800E508C398503D750A0C750B00780A122AFC
:103E280045E508F87900E875F00CA4C8AAF075F023
:103E380000A42AFA75F00CE9A42AF9747B28FC740A
:103E48001939FDEEFAEFFB12184B74021227D879D4
:103E580001800279007F0402290402011FC082C088
:103E680083901947E0FD901946E0FC901945E0F968
:103E78007ADF7B1A121803121A73E96401700D7C39
:103E8800157D007A9E7B9012180F800B7C187D00A0
:103E98007A557B8F12180FD083D08202011F74ECE1
:103EA8001228327E31750C00750D00750E40750FA5
:103EB80040121BDB8A088B09A808A909EEFA7B00C7
:103EC800E8C39AF508E99BF509E5093395E0F50A91
:103ED800F50B7808121CAF909667781012267A783E
:103EE8000C7910121ED57808790C122294780812D1
:103EF8002A41909667122698121C1174041227D82A
:103F08007F0C02290474F5122832780079007C00AD
:103F18007D007E007F007508E8750903901A17E098
:103F2800640560030240AE901A18E0F8A3E0F9E8CF
:103F380075F002A4C885F00A75F000A4250AF50AF0
:103F480075F002E9A4250AF9740D28F582741A3966
:103F5800F583EAF0A3EBF0901A18E02401F0A3E04F
:103F68003400F0901A18E0F8A3E0F97A057B001203
:103F7800272F901A18EAF0A3EBF078007900024096
:103F880080E8FAE9FBEA75F002A4CA85F00A75F040
:103F980000A4250AF50A75F002EBA4250AFB740DA6
:103FA8002AF582741A3BF583E0FAA3E0FBC3EE9A84
:103FB800EF9BA2D265D0335028E8FAE9FBEA75F006
:103FC80002A4CAAEF075F000A42EFE75F002EBA4B0
:103FD8002EFB740D2AF582741A3BF583E0FEA3E0EC
:103FE800FFE8FAE9FBEA75F002A4CA85F00A75F061
:103FF80000A4250AF50A75F002EBA4250AFB740D46
:104008002AF582741A3BF583C3E09508A3E0950965
:10401800A2D265D033502EE8FAE9FBEA75F002A483
:10402800CA85F00875F000A42508F50875F002EBBC
:10403800A42508FB740D2AF582741A3BF583E0F574
:1040480008A3E0F509E8FAE9FBEA75F002A4CA85D5
:10405800F00A75F000A4250AF50A75F002EBA4250C
:104068000AFB740D2AF582741A3BF583E02CFCA335
:10407800E03DFD08E8700109C3E89405E99400A251
:10408800D265D0335003023F89ECC39EF8ED9FF907
:10409800E8C39508F8E99509F97A037B0012272FF8
:1040A800E8FAE9FB8036901A17E0F87900E875F02D
:1040B80002A4C8ACF075F000A42CFC75F002E9A4C9
:1040C8002CF9740D28F582741A39F583EAF0A3EBFC
:1040D800F0901A17E02401F07A007B007F03022990
:1040E8000474F012283274E01227C2E9FEEE901927
:1040F800F5F0121A79E97003024196EEFA3395E069
:10410800FB121A978A088B098C0A8D0B90966B788C
:104118000C12267A7808790C121ED57808121D27F9
:10412800AA08AB09121A9D8A088B097808122A4531
:10413800EEF404F5087509007808122A457C557DC7
:10414800917404122820121C1D74041227D8901987
:10415800FCE0603AAA18AB19121C2F8A088B09AC2C
:1041680008AD09AA18AB1912180FAA18AB19121C16
:104178002F8A088B09AC08AD09AA18AB1912054992
:10418800E97A107B00901A49E0F91218A5E9742021
:104198001227D87F0802290474F612283274E8120C
:1041A80027C2908F86AC18AD1974181226D57508D9
:1041B800567509197808122A457C5C7D927402129A
:1041C8002820121C1D74021227D8AA18AB1912181D
:1041D800458A088B09AC08AD09AA18AB1912180F43
:1041E80074181227D87F020229047A497B19020120
:1041F8001FC082C083121B09D083D08202011FC056
:1042080082C08390195DE0F9D083D08202011F74C7
:10421800F012283279067A567B19121A558A0C8BB5
:104228000D8C0E8D0F850C08850D09850E0A850FDE
:104238000B9095FF780C12267A7808790C1224FADC
:10424800AA0CAB0DAC0EAD0F7F08022904C082C0CA
:1042580083901948E064027004790180027900D0E3
:1042680083D08202011FC082C083901948E0700485
:10427800790180027900D083D08202011F74F6127E
:1042880028329019FDE06403700479008076901953
:10429800FDE0640160089019FDE064047041901924
:1042A80078E0605E75080C7509007808122A459058
:1042B800197AE0F87900E875F00CA4C8ACF075F04C
:1042C80000A42CFC75F00CE9A42CF9747B28FC7470
:1042D8001939FD12184B74021227D87901802590DC
:1042E80019FDE06402701B75080C75090078081246
:1042F8002A457C6B7D1912184B74021227D8790154
:10430800800279007F0202290474F612283290197B
:10431800F8E0F508A3E0F509AA08AB09E4FCFD7F7D
:104328000202290474EB12283274F41227C28A1488
:10433800750B147405551470030245587E007F00F0
:104348009019FB7400F0901CC5E0640170421218CB
:104358001B8A088B09AE08AF09EE4F6030C3EE9494
:1043680015EF940040047E147F00EEFAEFFB12195B
:104378002F8A0A8B0B850A08850B09EEFCEFFDAA2C
:1043880008AB09121809AA08AB09121935024558D1
:1043980012181B8A088B09AE08AF09EE4F701590EA
:1043A8001A1E7400F0A37400F0A37400F0A3740044
:1043B800F0024558901A1E1226B0E8494A4B702957
:1043C8001219F5EAF8EBF9ECFAEDFB901A1A122635
:1043D800BCEEFCEFFDE4FEFF901A1EECF0A3EDF03E
:1043E800A3EEF0A3EFF0024558121A79E9700575AB
:1043F8000B168003750B141219F58A0C8B0D8C0E95
:104408008D0FE50BF87900C3EE98EF995029909538
:10441800FBC082C083850C10850D11850E12850F97
:1044280013901A1A7810122602D083D082781012AC
:104438001C904003024558750A00E50BFA7B0012F0
:10444800192F8A108B11851008851109E50845096F
:10445800700E7C047D007AAD7B9512180F024558CA
:10446800E50BF87900C3E89EE99F5005850B0A80A3
:1044780003EEF50A121A79E96003024506E50AFC1B
:104488007D00AA08AB09121809E50AC3940340473E
:10449800E50AF87900E50828F8E50939F9E824FE7D
:1044A800F582E934FFF583E0640D702BE50AF879AD
:1044B80000E50828F8E50939F9E824FFF582E93428
:1044C800FFF583E0640A700FE50AFC7D00AA08ABDB
:1044D80009121AE5E98002740070497CD57D94AA16
:1044E80018AB19121C1DAA18AB191218458A108B83
:1044F80011AC10AD11AA18AB1912180F8026E50AD5
:10450800FC7D00AA08AB09121809E50AFC7D00AA7F
:1045180008AB09120549E97A107B00901A49E0F9BD
:104528001218A5E9901A1A780C122689E50AF87962
:1045380000EEC398FCEF99FDE4FEFF901A1EECF024
:10454800A3EDF0A3EEF0A3EFF0AA08AB091219351A
:10455800740C1227D87F0D02290474E912283274CA
:10456800B91227C2EAFEEBFF8C088D097514017594
:1045780015007404650870047400650970347904C2
:104588007CBC7D95EEFAEFFB121A4FE960247CB2F1
:104598007D95AA18AB19121C1DAA18AB191218453B
:1045A8008A088B09AC08AD09AA18AB1912180F02B2
:1045B800556F7408650870047400650970167908E9
:1045C8007C3E7D94EEFAEFFB121A4FE96006121A50
:1045D8006D02556F740A65087004740065096003FC
:1045E8000246AF79077CF57D94EEFAEFFB121A4F7D
:1045F800E970030246AF8E828F83A3A3A3A3A3A36C
:10460800A3E024D0604B1460481460451460421441
:10461800603F24F560030246A9901945E0F5087546
:1046280009007808122A457C5D7D937402122820BF
:10463800121C1D74021227D8AA18AB191218458A21
:10464800088B09AC08AD09AA18AB1912180F025546
:104658006F8E828F83A3A3A3A3A3A3A3E024D090E8
:104668001945F0121A61901945E0F50875090078A6
:1046780008122A457C817D937402122820121C1D81
:1046880074021227D8AA18AB191218458A088B0980
:10469800AC08AD09AA18AB1912180F751501025507
:1046A8006F75140002556F740A650870047400650C
:1046B80009701679077C0E7D95EEFAEFFB121A4FFA
:1046C800E9600675140002556F740A650870047471
:1046D800006509701679077C167D95EEFAEFFB12D6
:1046E8001A4FE9600675140002556F740A65087060
:1046F800047400650960030247C079077C1E7D9534
:10470800EEFAEFFB121A4FE970030247C08E828F50
:1047180083A3A3A3A3A3A3A3E024D060451460426A
:1047280014603F24F360030247BA901948E0F50883
:104738007509007808122A457C5D7D937402122859
:1047480020121C1D74021227D8AA18AB191218457A
:104758008A088B09AC08AD09AA18AB1912180F0200
:10476800556F8E828F83A3A3A3A3A3A3A3E024D012
:10477800901948F0121A61901948E0F50875090077
:104788007808122A457C817D937402122820121C15
:104798001D74021227D8AA18AB191218458A088B5B
:1047A80009AC08AD09AA18AB1912180F7515010242
:1047B800556F75140002556FE508C3940AF8E509AA
:1047C8009400F9C3E8940BE99400400302489B79EC
:1047D800077C267D95EEFAEFFB121A4FE97003026B
:1047E800489B8E828F83A3A3A3A3A3A3A3E0643FC4
:1047F80070357508497509197808122A457C997D1C
:10480800937402122820121C1D74021227D8AA18A9
:10481800AB191218458A088B09AC08AD09AA18AB60
:104828001912180F02556F7C0C7D0079007A497BAC
:1048380019121863E50824F9F508E50934FFF509A4
:104848007808122A45EE2407FCE43FFD7A497B19D3
:1048580012184B74021227D8121A61750849750983
:10486800197808122A457C457D9374021228201273
:104878001C1D74021227D8AA18AB191218458A08E9
:104888008B09AC08AD09AA18AB1912180F751501D8
:1048980002556F740A6508700474006509703C79E4
:1048A800087CBC7D94EEFAEFFB121A4FE9602C7C71
:1048B800B07D93AA18AB19121C1DAA18AB191218AF
:1048C800458A088B09AC08AD09AA18AB1912180F4C
:1048D8007900121A6775150102556F740A65087018
:1048E8000474006509701679087CAA7D94EEFAEFC5
:1048F800FB121A4FE9600675150102556F740A65B7
:104908000870047400650960030249DD79077C3E7C
:104918007D95EEFAEFFB121A4FE970030249DD8E1E
:10492800828F83A3A3A3A3A3A3A3E024D0604214EC
:10493800603F24F260030249D7901955E0F50875E5
:1049480009007808122A457C5D7D9374021228209C
:10495800121C1D74021227D8AA18AB191218458AFE
:10496800088B09AC08AD09AA18AB1912180F025523
:104978006F8E828F83A3A3A3A3A3A3A3E024D0F95C
:10498800E970089019557400F08006901955740163
:10499800F0121A61901955E0F508750900780812A7
:1049A8002A457C817D937402122820121C1D7402F2
:1049B8001227D8AA18AB191218458A088B09AC080F
:1049C800AD09AA18AB1912180F75150102556F75A4
:1049D800140002556F740A65087004740065097044
:1049E8001079087CB37D94EEFAEFFB121A4FE97048
:1049F80022740F65087004740065096003024ABCDC
:104A080079077CC57D94EEFAEFFB121A4FE9700323
:104A1800024ABC8E828F83A3A3A3A3A3A3A3E064AB
:104A28003F70357508567509197808122A457CAC07
:104A38007D927402122820121C1D74021227D8AA13
:104A480018AB191218458A088B09AC08AD09AA18C1
:104A5800AB1912180F02556F75080675090078080A
:104A6800122A45EE2407FCE43FFD7A567B191218FA
:104A78004B74021227D890195C7400F0121A6175F1
:104A880008567509197808122A457C457D937402E1
:104A9800122820121C1D74021227D8AA18AB19124A
:104AA80018458A088B09AC08AD09AA18AB19121861
:104AB8000F02556F740A6508700474006509600375
:104AC800024B8679077CCD7D94EEFAEFFB121A4FE4
:104AD800E97003024B868E828F83A3A3A3A3A3A3AB
:104AE800A3E024D0604214603F24F26003024B80AC
:104AF80090195DE0F5087509007808122A457C5D73
:104B08007D937402122820121C1D74021227D8AA41
:104B180018AB191218458A088B09AC08AD09AA18F0
:104B2800AB1912180F02556F8E828F83A3A3A3A30C
:104B3800A3A3A3E024D090195DF0121A6190195D27
:104B4800E0F5087509007808122A457C817D937480
:104B580002122820121C1D74021227D8AA18AB1999
:104B68001218458A088B09AC08AD09AA18AB1912A6
:104B7800180F75150102556F75140002556FC3E5BE
:104B880008940AE5099400404579087C627D94EE12
:104B9800FAEFFB121A4FE9603575085E7509197846
:104BA80008122A457CD37D927402122820121C1DFB
:104BB80074021227D8AA18AB191218458A088B094B
:104BC800AC08AD09AA18AB1912180F02556F740A70
:104BD80065087004740065096003024C7179087CEB
:104BE800597D94EEFAEFFB121A4FE9607C121A73A2
:104BF800E96401706E9095CB7443122828740412EE
:104C080026D57E009019FD7401F0901978E07004A3
:104C18007E0180057E00121B15EEF83395E0F974CD
:104C28004312280EE58228F582E58339F583E0F5FD
:104C3800087509007808122A457C8D7D9374021244
:104C48002820121C1D74021227D8AA18AB19121892
:104C5800458A088B09AC08AD09AA18AB1912180FB8
:104C680002556F75140002556F741465087004744A
:104C78000065096003024D2179067C4D7D95EEFAA9
:104C8800EFFB121A4FE97003024D2190950574400D
:104C980012282874031226D5750800121A73E964BD
:104CA8000170709019FD7402F0750A0C750B00788C
:104CB8000A122A45EE2406FCE43FFD7A6B7B1912A2
:104CC800184B74021227D8E508F8790074401228A6
:104CD8000EE58228F582E58339F583E0F508750944
:104CE800007808122A457C8D7D93740212282012C0
:104CF8001C1D74021227D8AA18AB191218458A0865
:104D08008B09AC08AD09AA18AB1912180F121B159C
:104D180002556F75140002556F740A6508700474A3
:104D2800006509705579087C6B7D94EEFAEFFB12EB
:104D38001A4FE96045121A73E96401703779011254
:104D48001A677C007D0079007A097B041215F9E95D
:104D58007CC67D93AA18AB19121C1DAA18AB191290
:104D680018458A088B09AC08AD09AA18AB1912189E
:104D78000F02556F75140002556F740A65087004A8
:104D8800740065096003024E4B79087C237D94EE1C
:104D9800FAEFFB121A4FE97003024E4B121A73E92D
:104DA80064016003024E4B121A73E9640160030246
:104DB8004E45901978E070247C227D92AA18AB1990
:104DC800121C1DAA18AB191218458A088B09AC08C1
:104DD800AD09AA18AB1912180F02556F7E00901969
:104DE80078E0F8EEC398400302556FEEF87900E8D2
:104DF80075F00CA4C8AAF075F000A42AFA75F00C96
:104E0800E9A42AF9747B28F508741939F509780892
:104E1800122A457C787D927402122820121C1D7477
:104E2800021227D8AA18AB191218458A088B09ACA0
:104E380008AD09AA18AB1912180F0E80A175140035
:104E480002556F740A650870047400650970457925
:104E5800087C2C7D94EEFAEFFB121A4FE960357549
:104E680008C67509957808122A457CC17D95740293
:104E7800122820121C1D74021227D8AA18AB191266
:104E880018458A088B09AC08AD09AA18AB1912187D
:104E98000F02556F740A6508700474006509600391
:104EA800024F4979077CDD7D94EEFAEFFB121A4F29
:104EB800E97003024F49121A73E96401707D8E820A
:104EC8008F83A3A3A3A3A3A3A3E0643F7030901987
:104ED800F3122A5C7C467D957402122820121C1D50
:104EE80074021227D8AA18AB191218458A088B0918
:104EF800AC08AD09AA18AB1912180F02556F901912
:104F0800F37410F0A37427F0121A619019F3122A9F
:104F18005C7C407D927402122820121C1D740212BF
:104F280027D8AA18AB191218458A088B09AC08ADFE
:104F380009AA18AB1912180F02556F7514000255FB
:104F48006F740A6508700474006509704A790A7CF0
:104F5800A17D94EEFAEFFB121A4FE9603A9019F529
:104F6800E0F5083395E0F5097808122A457C927D2A
:104F7800927402122820121C1D74021227D8AA1833
:104F8800AB191218458A088B09AC08AD09AA18ABE9
:104F98001912180F02556F740A65087004740065B9
:104FA80009600302507679077C367D95EEFAEFFBAF
:104FB800121A4FE970030250768E828F83A3A3A33F
:104FC800A3A3A3A3E0643F70389019F7E0F5087530
:104FD80009007808122A457C9F7D927402122820C5
:104FE800121C1D74021227D8AA18AB191218458A68
:104FF800088B09AC08AD09AA18AB1912180F02558D
:105008006F8E828F83A3A3A3A3A3A3A3E024D0902E
:1050180019F7F09019F7E0C3940440069019F77453
:1050280000F0121A619019F7E0F508750900780880
:10503800122A457C817D937402122820121C1D744B
:10504800021227D8AA18AB191218458A088B09AC7E
:1050580008AD09AA18AB1912180F9019F7E0F874DF
:1050680003C398F9120BE5E975150102556F740A27
:105078006508700474006509600F740F6508700492
:1050880074006509600302515779077C2E7D95EEFF
:10509800FAEFFB121A4FE97003025157121A73E91B
:1050A80060030251518E828F83A3A3A3A3A3A3A35A
:1050B800E0643F70309019F8122A5C7C317D92745C
:1050C80002122820121C1D74021227D8AA18AB1924
:1050D8001218458A088B09AC08AD09AA18AB191231
:1050E800180F02556F7906EE2407FAE43FFB121AEF
:1050F800558A088B098C0A8D0B9019F8E508F0A3DE
:10510800E509F09019F8C3E09410A3E09427400350
:1051180002556F121A619019F8122A5C7C407D9230
:105128007402122820121C1D74021227D8AA18AB68
:10513800191218458A088B09AC08AD09AA18AB19C9
:1051480012180F75150102556F75140002556F740A
:105158000A65087004740065096003025222790721
:105168007CFD7D94EEFAEFFB121A4FE970030252B0
:10517800228E828F83A3A3A3A3A3A3A3E0643F707B
:10518800389019FAE0F5087509007808122A457C64
:105198005D7D937402122820121C1D74021227D8F8
:1051A800AA18AB191218458A088B09AC08AD09AAC8
:1051B80018AB1912180F02556F7901EE2407FAE49B
:1051C8003FFB121A558A088B098C0A8D0BE508904B
:1051D80019FAF09019FAE0C394025038121A619043
:1051E80019FAE0F5087509007808122A457C817DCE
:1051F800937402122820121C1D74021227D8AA18B0
:10520800AB191218458A088B09AC08AD09AA18AB66
:105218001912180F75150102556F740A6508700484
:1052280074006509704B790A7CA57D93EEFAEFFB53
:10523800121A4FE9603B121A73E96401702D901934
:10524800FD7403F07CBB7D93AA18AB19121C1DAA30
:1052580018AB191218458A088B09AC08AD09AA18A9
:10526800AB1912180F121B1502556F751400025551
:105278006F740A6508700474006509703A79077CD0
:10528800E57D94EEFAEFFB121A4FE9602A121A73C1
:10529800E96401701C9019FD7404F08E828F83A359
:1052A800A3A3A3A3A3A3E024D0F9121B4BE902559F
:1052B8006F75140002556F740965087004740065F1
:1052C80009600302556C79067C627D95EEFAEFFB66
:1052D800121A4FE9700302556C8E828F83A3A3A321
:1052E800A3A3A3E0F516E51624CC601814601914DE
:1052F800601A14601B1470030253A614700302543E
:105308007A0255677E04800A7E0580067E06800242
:105318007E0779801217257A04EEF912171F8A087A
:105328008B09AC08AD098C088D09E4F50AF50B78F2
:1053380008121CCA909673780C12267A7808790C91
:10534800121ED5909677780C12267A7808790C1266
:1053580022947808122A418C088D097808122A4567
:10536800E516F87900E824D0F508E934FFF509785E
:1053780008122A457CB67D8F7408122820121C1D3D
:1053880074081227D8AA18AB191218458A088B096D
:10539800AC08AD09AA18AB1912180F02556F7E1187
:1053A8007F0175089975090179001217257A027924
:1053B8000F12171F8A0A8B0BAC0AAD0BC3EC9508AA
:1053C800ED9509400474648058C3EE9CEF9D400439
:1053D8007400804DE508C39EF8E5099FF9E82401AB
:1053E800FAE439FB8A088B09740278081227A0AA04
:1053F80008AB09ECC39EF8ED9FF9E875F019A4C84D
:10540800AEF075F000A42EFE75F019E9A42EF9E8A7
:105418002AF8E93BF9E824FFF8E934FFF9122737BD
:10542800E8F5087509007808122A458C088D09786E
:1054380008122A45E516F87900E824D0F508E93479
:10544800FFF5097808122A457C707D9074061228A9
:1054580020121C1D74061227D8AA18AB1912184559
:105468008A088B09AC08AD09AA18AB1912180F02E3
:10547800556F750C00750D00750E00750F00906264
:105488004B7401F09061A97401F07E008057790097
:105498001217257A03790E12171F8A088B09AC0890
:1054A800AD098C088D09E4F50AF50B7808121CCAB9
:1054B80090967B781012267A78087910121ED5906B
:1054C800967F781012267A7808791012207A9096AA
:1054D80083781012267A78087910122294780C7939
:1054E8000812207A0EEEC3944040A3850C08850D5F
:1054F80009850E0A850F0B909687780C12267A7804
:1055080008790C12229490624BE0C2E0F09061A9F5
:10551800E0C2E0F07808122A418C088D0978081258
:105528002A45E516F87900E824D0F508E934FFF5AE
:10553800097808122A457C877D9074081228201261
:105548001C1D74081227D8AA18AB191218458A0806
:105558008B09AC08AD09AA18AB1912180F80087589
:1055680014008003751400E51560117AC87B0012D9
:105578001A49C2AF75C9AB75C95B80FEA9147447D7
:105588001227D87F0F02290474F612283274C81221
:1055980027C2E9FF7E01EFA2E54003025634901CC2
:1055A800C6E0C2E5F07C697D957A227B1A121C1D43
:1055B8007C517D937A2E7B1A121C1D901CC5E070BD
:1055C80008901CC57401F08006901CC57400F0900A
:1055D8001CC5E0600779011219418005790012198C
:1055E80041901CC5E0F5087509007808122A457C29
:1055F800E77D93740E122820121C1D74021227D8FE
:105608007906740C122820121785740C122820129F
:105618001C2F8A088B09AC08AD09740C12282012BB
:1056280018157A017B00121A4902584EEFA2E05071
:1056380042901CC6E0C2E0F07C707D957A227B1A0D
:10564800121C1D7C867D947A2E7B1A121C1D121A40
:1056580073E96401600302584E901A7EE064027098
:105668000302584E7C0A7D007AA57B93121AE5E95D
:1056780002584EEFA2E45035901CC6E0C2E4F07C1C
:105688007D7D947A227B1A121C1D7CD77D917A2EFF
:105698007B1A121C1D9019FCE070099019FC74010A
:1056A800F002584E9019FC7400F002584EEFA2E335
:1056B800503B901CC6E0C2E3F07C747D947A227B58
:1056C8001A121C1D7C747D947A2E7B1A121C1D12D2
:1056D8001A73E96401600302584E901A7EE064026E
:1056E800700302584E7901121B3902584EEFA2E19D
:1056F8005020901CC6E0C2E1F07C057D947A227BA4
:105708001A121C1D7CB47D907A2E7B1A121C1D0265
:10571800584EEFA2E2400302584C901CC6E0C2E289
:10572800F07CD17D937A227B1A121C1D7C137D920A
:105738007A2E7B1A121C1D121A73E9640160030287
:1057480057ED901A7EE064026039121B3FE9F508B4
:105758007509007808122A457C397D93740212284D
:1057680020121C1D74021227D8AA18AB19121C2F5C
:105778008A088B09AC08AD09AA18AB19121AE5E911
:1057880002584E121A79E9700302584E901A42E0F4
:105798006008901A427400F08006901A427401F072
:1057A800901A42E0F5087509007808122A457C0726
:1057B8007D937402122820121C1D74021227D8AA85
:1057C80018AB19121C2F8A088B09AC08AD09AA1846
:1057D800AB19120549E97A107B00901A49E0F912D1
:1057E80018A5E98061121A79E9605B901A43E060B4
:1057F80008901A437400F08006901A437401F090E0
:105808001A43E0F5087509007808122A457C147DCA
:10581800937402122820121C1D74021227D8AA1889
:10582800AB19121C2F8A088B09AC08AD09AA18AB52
:1058380019120549E97A107B00901A49E0F9121803
:10584800A5E980027E00901CC6E07014901A44E01E
:10585800700E901A447401F07A017907121797E9CB
:10586800EE605675082E75091A7808122A457C7D4F
:105878007D95740E122820121C1D74021227D890D0
:105888001CC6E0600678007900800478807900E81A
:105898004408F9740C122820121785750822750916
:1058A8001A7808122A457C7D7D95740E12282012DC
:1058B8001C1D74021227D8805475082E75091A7891
:1058C80008122A457C547D95740E122820121C1D3E
:1058D80074021227D8901CC6E06006780079008010
:1058E8000478807900E84408F9740C12282012170B
:1058F8008575082275091A7808122A457C547D9501
:10590800740E122820121C1D74021227D8740C124F
:105918002818880889097808122A457CC17D957459
:1059280026122820121C1D74021227D8121A79E98F
:1059380070217424122820121C2F8A088B09AC08A5
:10594800AD09742412282012180F7A017B00121A4C
:105958004980267424122820121C2F8A088B09AC2F
:1059680008AD097424122820120549E97A107B0031
:10597800901A49E0F91218A5E974381227D87F025D
:1059880002290474EC12283274C01227C2EAFEEB12
:10599800FF8C088D09C3E5089409E509940040398E
:1059A80079087C477D94EEFAEFFB121A4FE96029DB
:1059B8008E828F83A3A3A3A3A3A3A3A3E0F8743029
:1059C80068700B7A007902121797E9025D377A013D
:1059D8007902121797E9025D37C3E5089409E509CA
:1059E8009400403979087C8F7D94EEFAEFFB121A07
:1059F8004FE960298E828F83A3A3A3A3A3A3A3A3A4
:105A0800E0F8743068700B7A007904121797E9028D
:105A18005D377A017904121797E9025D37C3E50803
:105A28009409E5099400403579087C357D94EEFAAF
:105A3800EFFB121A4FE960258E828F83A3A3A3A3DD
:105A4800A3A3A3A3E0F874306870099019FC74004C
:105A5800F0025D379019FC7401F0025D37C3E50868
:105A68009407E50994005003025D3779067C627D4E
:105A780095EEFAEFFB121A4FE97003025D378E823A
:105A88008F83A3A3A3A3A3A3E0FEEE24CC601814E2
:105A9800601914601A14601B147003025B561470AA
:105AA80003025C3F025D377F04800A7F0580067F22
:105AB8000680027F0779801217257A04EFF91217FA
:105AC8001F8A088B09AC08AD098C088D09E4F50A12
:105AD800F50B7808121CCA909673780C12267A78FF
:105AE80008790C121ED5909677780C12267A7808C9
:105AF800790C1222947808122A418C088D097808AA
:105B0800122A45EEF87900E824D0F508E934FFF5C3
:105B1800097808122A457CB67D8F7408122820124D
