:020000040000FA
:0600000002010702311DA0
:03002B000235900B
:0300330002356A29
:03003B000235ADDE
:030043000235156E
:03005300023193E4
:03006B0002353B20
:10008300022F73E5C754F84401F5C7790122000034
:100093000080FB120086B900030200F1E4792178A5
:1000A30008B800028004F709D8FCE479297802B87B
:1000B30000028004F709D8FCE4900281784779199B
:1000C3008002F0A3D8FCD9FA7AC77B1A900137785B
:1000D3001379058015E493A3AD82AE838A828B8363
:1000E300F0A3AA82AB838D828E83D8E9D9E7758288
:1000F300167583D574051201197582917583007481
:100103000012011975D00075813F751881751902A8
:10011300759F00020096C09FF59FE473D09F22D085
:1001230083D082C09FE493C0E0740193C0E0740263
:1001330093F59F22ED06F9062F072907FF0000B468
:10014300000028002800283075A000A000A000A00F
:100153000000080008E001F000100010001000107B
:10016300001000100050005000500010001000D08C
:10017300070000000000000F0001000500307507B4
:10018300001000010081FF00000000FFFFFF6D0869
:100193008B087308AF08FF02020208025000A00098
:1001A3000000E80302A7960100008C9602A19601C5
:1001B30000002A1B029B960100000A0402A196017B
:1001C30000002B1B02AF96010000200402A1960140
:1001D30000002C1B02B596010000220402A1960127
:1001E30000002D1B02BD96080000230402A1960106
:1001F30000002E1B02C3960100002F1BFFFF01000E
:10020300FF2002A7960100008F9602A1960100002D
:10021300941B02DD960000000000029D960300007F
:1002230053041700F510F510F510F510F510F5103F
:10023300F510F510F510F510F510F510F5104D1338
:100243006B1347139114A3148B14020202020202CC
:10025300020202010D000000100102A79601000036
:10026300989602A196010000DD1B02BF96010000D3
:10027300A20E02A196010000DE1B02C79601000038
:10028300B99202A196010000DF1B02C9960100008A
:100293006A9202A196010000E01B02C596010000CC
:1002A300EA9002A196010000E11B02C19601000041
:1002B300D89002A196010000E21B02B9960100004A
:1002C300209102A196010000E31B02DB96010000CE
:1002D300329102A196010000E41B02B396010000D3
:1002E3004E9202A196010000E51B02B196010000A7
:1002F300E61B0401E803057710020A0ABF16FFFF95
:10030300FF00013075030201060000000000000039
:1003130000000000000000000000000000000000DA
:100323000000000000FFFF0600800CE803013FFE11
:10033300FF0101010201060302F0FF0201061AFF99
:100343004C000215E2C56DB5DFFB48D2B060D0F5B5
:10035300A71096E000010002CD6F1B751B811B8760
:100363001B7B1B0A436861726163746572697374F2
:100373006963203100024368617261637465726965
:100383007374696320320008436861726163746542
:100393007269737469632033001043686172616327
:1003A300746572697374696320340002436861720F
:1003B30061637465726973746963203500164368F9
:1003C30061726163746572697374696320360010C6
:1003D300436861726163746572697374696320371A
:1003E3000002A796010000929602A196010000F672
:1003F3001C02CD960300008C1A029F96010000F7A1
:100403001C02A196010000081D02CF960100008D79
:100413001A029F96010000091D02A1960100001A0D
:100423001D02D1960200008E1A029F960100001B46
:100433001D02A1960100002C1D02D3960000008F1F
:100443001A029D96030000901A029F960100002D48
:100453001D02A1960100003E1D02D59604000092E4
:100463001A029F960100003F1D02A1960100005051
:100473001D02D796030000971A029D96030000AC55
:100483001A029F96010000511D02A196010000620D
:100493001D02D996000000AE1A029D96030000C308
:1004A3001A029F96010000631D0100B0423BAAB8E7
:1004B3003F0000003F8C906339AA0CA33A00941EBE
:1004C3003C8042633DCFFE753E1572313F00008094
:1004D3003FF304353F8096184B3031323334353691
:1004E30037383941424344454600286E756C6C20C9
:1004F300706F696E7465722900303132333435366A
:10050300373839616263646566003F3F3F0000002E
:10051300807FF9021550B743BA5100E7DB2E000084
:10052300A040000080BF2292D43EDD9B2A3F0400FE
:10053300004000000000FFFF7F7FFFFF7FFF0100FF
:1005430080341872313F12012260BB051201224729
:10055300BC0512012241BD0512012213B905120186
:100563002226B90512012247B905120122B2B905A3
:10057300120122F3B90512012214BA051201225500
:10058300BA05120122EDBA0512012235BB0512018B
:1005930022F6A10512012209A2051201223AA2059F
:1005A30012012274A205120122CDA2051201221406
:1005B300A3051201225CA3051201228BA3051201DC
:1005C30022BAA305120122F1A30512012238A405C0
:1005D30012012251A405120122A6A405120122BF71
:1005E300A4051201220DA50512012247A50512013A
:1005F300221FEA0312012222EB031201224FEB0313
:10060300120122A0EB03120122C3EB03120122D534
:10061300EB03120122D8EB0312012216EC031201A1
:10062300228AEC03120122F6EC03120122BEED032F
:10063300120122DAED0312012211EE031201224B01
:10064300EE03120122E2EE0312012234EF03120140
:100653002265EF0312012296EF03120122A3EF0397
:100663001201220DF00312012210F0031201221DC8
:10067300F00312012220F00312012277F00312018A
:10068300227AF003120122B3F003120122B6F0031F
:10069300120122EAF003120122EDF00312012241BA
:1006A300F1031201228AF1031201229AF1031201CA
:1006B30022CDF103120122DAF103120122DDF1034B
:1006C30012012245F20312012247F303120122EB26
:1006D300F30312012254F40312012292F4031201D0
:1006E300227AF60212012277F7021201220DF80292
:1006F30012012258F802120122BCF802120122460A
:10070300F902120122FFF90212012221FD02120154
:10071300229EFE02120122C1FE02120122DA91057B
:100723001201227F93051201229F9305120122C019
:100733009405120122139505120122209605120138
:1007430022489605120122759605120122AD9605DF
:100753001201220B9705120122579705120122BE9F
:100763009705120122FE97051201223B98051201FB
:10077300226998051201221399051201221D990578
:100783001201222A99051201225D9905120122699B
:1007930099051201228199051201228B99051201F3
:1007A3002210FF031201221EFF0312012236FF0350
:1007B3001201224EFF0312012265FF03120122D50B
:1007C300E4021201227FE50212012292E6021201E3
:1007D300220EE7021201222CE80212012268E8022B
:1007E30012012203E902120122E7E902120122AAFD
:1007F300EA0212012222EB02120122B0EC021201E0
:100803002221ED02120122DBED02120122CDEE02C2
:100813001201220DEF02120122C1EF02120122F393
:10082300EF02120122E9F10212012230F202120157
:10083300224EF202120122B4F20212012283F302C7
:1008430012012247F40212012266F60212012270FB
:10085300F60212012268BE0412012252BF041201E1
:1008630022FDBF041201224EC004120122FEC00465
:100873001201226FC10412012254C2041201228800
:10088300C20412012281C304120122BEC304120155
:10089300229AC404120122D9C404120122F5C40409
:1008A30012012284BF0512012208C005120122335E
:1008B300C0051201224DC105120122199A05120128
:1008C300222F9A051201224D9A051201225E9B05E1
:1008D300120122689B05120122939C051201228AB0
:1008E3009D05120122F79D05120122019E051201A9
:1008F3002221CC0412012257CD04120122D1CD04AE
:1009030012012201CE0412012214CE041201226B21
:10091300CE0412012280D0041201222E960212016B
:1009230022DF9602120122FB9602120122C49702D1
:10093300120122DE9702120122E99702120122BF5D
:1009430098021201229C99021201222C9A0212018E
:1009530022E39A02120122F19D02120122E09F0278
:1009630012012292A0021201225BA102120122A013
:10097300A4021201224AA50212012273A602120145
:10098300222FA802120122CFA8021201221DA902BE
:100993001201225CA9021201222FAA021201226370
:1009A300AA02120122F0AA0212012241D20212016A
:1009B30022CDD20212012231D4021201223DD402ED
:1009C30012012278D402120122E7D402120122F08A
:1009D300D502120122F9D602120122C0D702120156
:1009E300221DD9021201223BD90212012258D90237
:1009F30012012205DA0212012282DA02120122AA6C
:100A0300DA0212012274DD0212012279DD021201DF
:100A13002292DF02120122E0DF0212012250E002E1
:100A23001201228EE0021201226AE1021201222A3D
:100A3300E20212012276E20212012279E20212019B
:100A430022BDE20212012205E30212012244E30263
:100A530012012266E3021201229AE302120122FD2D
:100A6300E30212012236F2041201223FF2041201C0
:100A7300224DF204120122A0F204120122BFF20459
:100A830012012204F30412012248F404120122E3A6
:100A9300F40412012227F50412012251F504120174
:100AA30022C0F50412012206F6041201227DF60487
:100AB3001201222EF704120122DF9601120122EF06
:100AC3009601120122909701120122EC9701120163
:100AD30022A99801120122C59901120122F7990155
:100AE300120122269A01120122D39B011201224AEA
:100AF3009E01120122BAA001120122ACA10112012E
:100B030022A5A201120122ACA401120122A0A70175
:100B1300120122CFA801120122D3AA01120122E35A
:100B2300AB0112012272AD0112012263AE01120167
:100B330022B1AE0112012220AF0112012244AF0102
:100B430012012295AF0112012236B401120122379C
:100B5300B50112012298B501120122C3B501120198
:100B63002289B60112012205D8041201220FD804EA
:100B730012012254D80412012268D804120122F867
:100B8300D80412012231D9041201226CD9041201B2
:100B93002295D904120122E3D904120122F8D904BF
:100BA3001201220DDA0412012222DA041201226553
:100BB300DA041201227ADA04120122E5DA041201BC
:100BC30022F9DA041201220DDB0412012222DB04D2
:100BD3001201225CDB0412012280DB04120122AC2D
:100BE300DB04120122E3DB0412012245DC041201BF
:100BF30022B7DC04120122FADC0412012224DD04F0
:100C03001201224FDD041201227DCD051201229D26
:100C1300F30112012280F401120122FBF4011201FB
:100C23002236F50112012287F60112012210F70183
:100C330012012228F901120122BAFB011201226CCE
:100C4300FC0112012278FD01120122EBFE011201C7
:100C53002244FF01120122F8E7041201223BE804B7
:100C6300120122BFE80412012292E904120122694F
:100C7300EC0412012214B405120122C1B4051201BD
:100C830022CEB5051201220DB60512012267B60563
:100C930012012271C305120122D4C305120122716C
:100CA300C405120122A6C405120122D6C4051201ED
:100CB30022F7C40512012232C50512012252C505CD
:100CC30012012240F704120122CCF7041201228BF5
:100CD300F804120122A3F904120122BDFB0412013C
:100CE30022D3C803120122F8C803120122C5C90383
:100CF30012012299CA0312012206CB031201225CBC
:100D0300CB03120122F8CB031201222CCD031201D3
:100D13002207CE0312012266CE03120122F2CE0372
:100D230012012260CF03120122ECCF03120122EF42
:100D3300CF0312012239D003120122ABD0031201D7
:100D4300223DD103120122DED103120122FED1037F
:100D530012012246D2031201228FD203120122ABC7
:100D6300D203120122D1D2031201224BD303120167
:100D73002259D303120122E8D30312012251D403CF
:100D83001201229784051201221C85051201225E9D
:100D93008505120122428605120122AF8605120142
:100DA30022F3860512012237870512012264870583
:100DB3001201228C8705120122C487051201220227
:100DC3008805120122298805120122A38805120130
:100DD30022ED8805120122F5B601120122EEB801B7
:100DE300120122DABB011201222EBC011201225987
:100DF300BC0112012233BD0112012272BD01120195
:100E030022B9BD01120122CCBD011201220DBE0186
:100E13001201223ABE0112012288BE01120122C729
:100E2300BE01120122F2BE0112012245BF011201CD
:100E330022D4BF01120122B2C201120122CDC40188
:100E43001201220BC50112012280C601120122C523
:100E5300C601120122B9C701120122D2C90112012E
:100E63002234CA0112012285CA01120122A0CF0134
:100E7300120122EFCF0112012235D0011201221DEE
:100E8300D201120122EBD301120122F0D30112018C
:100E930022CAD40112012243D50112012273D601C1
:100EA30012012285D6011201226EB105120122E040
:100EB300B10512012236B2051201227AB2051201DE
:100EC300229AB205120122E7B2051201222FB305BD
:100ED30012012282B305120122D3B3051201227C2F
:100EE3009304120122FB9304120122F499041201C8
:100EF30022FA9A041201226D9C04120122049D0419
:100F0300120122A8D601120122F1D6011201221EDA
:100F1300D70112012250D7011201225CD70112011D
:100F23002268D7011201227FD7011201225AD80168
:100F3300120122B8D801120122EDD8011201221E9A
:100F4300DA011201226BDA01120122B1DA01120174
:100F5300221DDB01120122C1DB0112012277DC0118
:100F6300120122D6DC0112012247DD01120122A562
:100F7300DD01120122D7DE011201223FE00112013D
:100F83002209E10112012216E10112012258E101B5
:100F930012012268E1011201228CE1011201228F68
:100FA300E1011201227BE20112012217E301120186
:100FB30022B0E30112012247E40112012274E40189
:100FC300120122D2E40112012219E5011201226960
:100FD300E501120122B9E5011201222BE6011201FA
:100FE30022C6E60112012271E70112012210E80173
:100FF3001201228EE801120122D5E80112012239E1
:10100300E90112012268E901120122FFE90112013B
:101013002211EC0112012255EC01120122A0EC0174
:1010230012012226ED01120122B0ED01120122C9A3
:10103300EE011201224FEF0112012274EF0112019E
:1010430022CBEF01120122E0EF0112012228F0016D
:101053001201229BF001120122E0F001120122E9A8
:10106300F1011201229AF201120122F8F201120196
:101073002254F3011201226DF3011201222E9D0469
:10108300120122829D041201228E9D041201225814
:101093009E04120122859E04120122B39E041201B2
:1010A300221F9F04120122559F041201228E9F04C6
:1010B300120122A69F04120122FB9F041201221493
:1010C300A00412012259A0041201226CA0041201EF
:1010D3002286A0041201229CA004120122BAA104B8
:1010E300120122E5A204120122CFA304120122C09D
:1010F300A4041201222D36001201221BED04120159
:10110300229EF004120122EBF10412012257BC03C8
:101113001201222ABF0312012230BF03120122C08F
:10112300C10312012223C40312012200800512010C
:10113300229780051201225581051201227F810524
:101143001201225983051201225E84051201220035
:1011530080021201223280021201224F8C021201FC
:1011630022A08D02120122A98E02120122289002CE
:101173001201221391021201226291021201227CB6
:101183009102120122BE9102120122C9910212019F
:1011930022109202120122199202120122C5920216
:1011A3001201229E9302120122E593021201224DA3
:1011B30094021201228F9402120122BD94021201A1
:1011C30022FA94021201223DBF0212012208C30235
:1011D3001201220EC302120122B2C9021201220617
:1011E300CE02120122EFD102120122AFA505120194
:1011F3002225A6051201223BA605120122CBA60534
:1012030012012208A70512012242A7051201227C1E
:10121300A705120122EFA70512012230A80512012A
:101223002239A80512012245A80512012264A80546
:101233001201228EA805120122A3A805120122E69B
:10124300A80512012256C50412012269C504120120
:101253002283C504120122B0C504120122F6C5047B
:1012630012012229C60412012267C604120122CCEC
:10127300C604120122E1C604120122ECC6041201C3
:1012830022F9C60412012210C7041201221EC70448
:101293001201222DC70412012242C7041201225750
:1012A300C70412012262C7041201226EC70412018D
:1012B300227BC7041201228EC70412012299C7049C
:1012C300120122BEC70412012262C8041201227253
:1012D300C80412012287C8041201229CC804120107
:1012E30022B6C804120122D3C804120122F0C80492
:1012F300120122FBC804120122A7C9041201228889
:10130300CA04120122ADCA04120122B8CA0412018E
:1013130022CDCA04120122E1CA0412012242CB04E3
:1013230012012248CB041201224ECB041201225493
:10133300CB041201226CCB041201229FCB041201B5
:1013430022B8F403120122DAF403120122A2F503F4
:101353001201225CF80312012272F9031201229393
:10136300FA031201226DFB031201221CFC0312017A
:1013730022D4AE031201226BAF0312012203B00386
:10138300120122F3B0031201222AB1031201223DFA
:10139300B103120122ABB10312012246B3031201BE
:1013A300226DB3031201220FB40312012244B403CA
:1013B30012012255B403120122CEB403120122EF0B
:1013C300B40312012207B5031201225FB60312010F
:1013D3002268B803120122B8BA03120122BBBB036D
:1013E3001201220ABC0312012238A0031201223582
:1013F300A10312012220A2031201222AA203120135
:101403002234A20312012256A20312012262A20372
:10141300120122B4A303120122E3A3031201221334
:10142300A50312012255A50312012281A60312016D
:101433002257A703120122A9A70312012208A80316
:101443001201223FA8031201227AA80312012215D6
:10145300AC031201222EAC03120122B0AC03120121
:1014630022BEAC0312012213AD0312012221AD03EC
:101473001201228EAD0312012200AE031201224695
:10148300AE0312012274D40312012296D403120173
:101493002280D60312012225DA0312012268DB031C
:1014A30012012242DC03120122F5C8051201221A9D
:1014B300C9051201228BC9051201227AA604120161
:1014C3002283A6041201228CA604120122BDA704C2
:1014D300120122DCA90412012212AA041201224CD5
:1014E300AA0412012282AA04120122BCAA04120134
:1014F30022F0AA041201221CAB0412012265AB04E0
:101503001201229FAB04120122E7AB041201223D18
:10151300AC0412012272AC04120122CDAC041201FC
:101523002207AD0412012258AD041201228EAD042C
:10153300120122C8AD04120122F6AD0412012219D0
:10154300AE041201229DD205120122C9D205120155
:101553002224D3051201222ED3051201223ED305E4
:10156300120122A7AE04120122EBAE04120122994A
:10157300AF0412012211B00412012263B00412015C
:101583002203B1041201223FB104120122D9B10492
:1015930012012256B204120122AFB304120122C86F
:1015A300B30412012200B50412012293B5041201FF
:1015B30022FCB50412012268B6041201222D89050A
:1015C3001201225489051201228589051201226024
:1015D300C50512012277C505120122A6C505120110
:1015E300222CC60512012248D3051201229C5D005C
:1015F300120122B86000120122A962001201221B0B
:101603006300120122D963001201228464001201D3
:1016130022146500120122A36500120122CD650088
:101623001201223A6600120122746B001201220891
:101633006C00120122376D001201229B6D00120112
:10164300224F6E001201220271001201223C71002E
:10165300120122A6710012012204720012012262F9
:101663007200120122BF7200120122AE7300120136
:1016730022F473001201223974001201225A7400F9
:10168300120122BC7500120122D775001201225DDE
:1016930077001201228A7700120122CA7700120111
:1016A300221078001201222E78001201226C780099
:1016B300120122927A00120122CB7A0012012262D5
:1016C3007B00120122027C00120122957C00120190
:1016D30022017D00120122427E0012012277DD04E5
:1016E3001201220BDE041201224ADF04120122D36B
:1016F300DF04120122A6E004120122CFE00412014A
:101703002236E1041201229EE10412012291CE0548
:10171300120122A2CE0512012273CF051201221457
:10172300A905120122DFAB051201226CD6051201B5
:101733002283CF0512012293CF05120122B0CF05D8
:1017430012012244D005120122C3AE051201225D0B
:10175300AF0512012253B1051201223EC705120142
:101763002274C705120122E4C70512012247C805E6
:10177300120122B7C805120122F77F00120122FAD3
:101783007F00120122F4FB0412012216FC04120151
:1017930022A8FC04120122A6FD0412012297FF04D1
:1017A30012012247D20412012244D404120122CA94
:1017B300D404120122D5D50412012295D6041201B4
:1017C300220AD7041201227CD7041201227FD704F4
:1017D3001201228DD704120122A1D704120122B9CA
:1017E300D704120122D1D704120122DFD704120138
:1017F30022F7D704120122DAD10512012254D205AD
:1018030012012264D20512012274D2051201228D23
:10181300D2051201227CC105120122ADC1051201BC
:1018230022D7C10512012294C205120122B4C205B6
:101833001201220CC305120122C88904120122D607
:1018430089041201221C8A041201226F8A041201E4
:1018530022B78A04120122118B04120122328B0453
:10186300120122098E04120122178E04120122731F
:101873008E04120122A68E04120122B98E041201D3
:1018830022448F04120122DB8F041201225690049A
:101893001201228D90041201221391041201226875
:1018A3009104120122C39104120122D59104120161
:1018B300220692041201220F920412012248930479
:1018C300120122ABCA051201220ACB05120122A57D
:1018D300CB051201220BCC051201228D8D051201BD
:1018E30022C08D05120122E68E051201220B8F05FF
:1018F300120122CC8F05120122A490051201227637
:101903007E001201223F7F00120122977F00120105
:1019130022B2B605120122F7B60512012235B70528
:10192300120122D0B80512012288D405120122A384
:10193300D405120122B3D40512012216D1051201D6
:101943002252D005120122008004120122DC8004FD
:101953001201221F8104120122598104120122C59E
:1019630081041201221D82041201228D82041201BC
:10197300225E8304120122488404120122BF8404DC
:10198300120122558604120122E08604120122501C
:101993008704120122CA8704120122E1870412017B
:1019A300220C89041201225F8904120122C2E2047B
:1019B300120122DFE204120122CBE30412012214FA
:1019C300E40412012234E40412012270E40412013B
:1019D30022C9E40412012205E5041201224DE504A3
:1019E300120122E7E704120122E6AB0212012201EF
:1019F300B102120122F8B3021201221EB402120133
:101A03002247B402120122F5B402120122D6B60211
:101A1300120122F1B7021201220AB80212012200B6
:101A2300BD0212012239BD021201227DBD02120143
:101A3300228ABE021201223836001201226C3600BD
:101A4300120122A73600120122193700120122E0E7
:101A53003700120122F73700120122D33800120196
:101A630022C83C00120122D83C00120122093D0089
:101A7300120122DC3D001201223E3E0012012241EE
:101A83003E00120122823E00120122E93E001201B1
:101A930022C540001201227C4100120122CE4100E6
:101AA300120122D54100120122E34100120122F367
:101AB30041001201223142001201224A4200120166
:101AC30022614200120122ED42001201220843006A
:101AD3001201223E45001201226C550012012267B9
:101AE30059001201221F5D0012012200800312011E
:101AF30022348103120122618103120122B0840383
:101B0300120122E98403120122FA8403120122162C
:101B13008603120122278603120122B786031201CC
:101B230022C786031201228E8B03120122328C03F9
:101B3300120122408C031201226D8C03120122D266
:101B43008C03120122AA8E031201227F8F0312013A
:101B53002284DF03120122D1E30312012255E6039B
:101B63001201228EE6031201229FE603120122BE16
:101B7300E603120122E8E703120122F9E703120147
:101B83002255E803120122E6E80312012295E90334
:101B9300120122AFB604120122BDB704120122DAE8
:101BA300B704120122B5B904120122D9BA041201F1
:101BB3002275BC041201228BD605120122EDAB055E
:101BC3001201225FCC051201227FD5051201225A90
:101BD300900312012266950312012275BD051201BD
:101BE30022B17F0012012217D6051201220B9E0596
:101BF300120122F2D3051201221CD405120122E0A4
:101C0300D50512012243D605120122A9D605E066A5
:101C1300701008A3E066700A08A3E066700408A3C6
:101C2300E06622C008C3E096F50808A3E0964208E0
:101C330008A3E096420808A3E0964208A2D265D022
:101C430033E5087001D3D00822C3E7960809E79665
:101C53000809E7960809E79622C3E09608A3E096E9
:101C630008A3E09608A3E09622C008C3E096F5080F
:101C730008A3E096420808A3E096420808A3E0966A
:101C830045087001D3D00822080808E630E711128E
:101C93002545121CA3080808C64480C61818182234
:101CA300181818E9799EC608CAC608CBC608CCC658
:101CB300C370207996CACBCC7019798ECBCC7013B4
:101CC3007986CC700EF9802ACA33CACB33CBCC3396
:101CD300CC331930E7F2CCCBCA3350147004EA305A
:101CE300E00DE4CA3ACACB3BCBCC3CCC500209C38F
:101CF300E913C6CC182313C6CB18C6CA18C6F922D3
:101D0300121D4320F01430E72B74FFFCFBFA747FA1
:101D13008022E4FCFBFA7480801AB48008BC00F2D1
:101D2300BB00EF800F50EBF9E4C39AFAE49BFBE4AA
:101D33009CFCE499C6CC18C6CB18C6CA18C6F922AF
:101D4300E4C9C608CAC608CBC6D3330308CCC63316
:101D530092F0C3947F402E94184019C9B90704CA5E
:101D6300CBCC225025C309CA33CACB33CBCC33CC1B
:101D730033D9F422F4600DC9CCC313CB13CBCA13EC
:101D8300CAD9F6CC22E4FCFBFA2214FCFBFA22E6C5
:101D93002618461846184622E727194719471947B0
:101DA30022181818E60846087009E626087005E6A2
:101DB30033F4220822191919E70947097009E7279B
:101DC300097005E733F4220922E6084608C31346DF
:101DD30008336002E633F422E7094709C3134709CE
:101DE300336002E733F422121DCC6025121DDB6041
:101DF30020121D927003021D9B080808E7667010ED
:101E03001819E766700A1819E76670041819E76667
:101E130022F422121DCC601C121DDB6017121D92CE
:101E23007007121D9B7001D322C0D0121D9B700638
:101E3300D0D0B322C32233D0D0501430E0F6C3E75E
:101E4300960809E7960809E7960809E796B322205A
:101E5300E0D5E6970809E6970809E6970809E697A3
:101E6300B322121DCC601B121DDB6016121D927073
:101E730007121D9B600CB322C0D0121D9B7005D0AE
:101E8300D022C32233D0D0501330E0EBC3E79608FF
:101E930009E7960809E7960809E7962220E0E4E6B1
:101EA300970809E6970809E6970809E697220012BA
:101EB3001DCC604F121DDB6012E7548066F6121DC5
:101EC300A47011121D9B703B090909F4F618F6184A
:101ED300F618F622121DB87015121D920808086034
:101EE300EAE6447FF618768018E4F618F622121D07
:101EF300926016121D9B7012E4F608F608F608E6C7
:101F03005480F609090918181822EAC0E0EBC0E06A
:101F1300ECC0E0EDC0E0E687F0A4FBACF008E68798
:101F2300F0A42CFCE435F0FA1809E687F0A42C4B56
:101F330060027401CA35F0FCE433FB09E687F0D292
:101F4300F7A42CCB35F0FC1908E687F0A42BCC358D
:101F5300F0FBE433FD0819E687F0D2E7A42C4ACB63
:101F630035F0CD3400FC09E687F0D2E7A42DCC355B
:101F7300F0FDE433FA0918E687F0D2F7A42CCD3547
:101F8300F0CA3400FC08E687F0D2E7D2F7A42ACCE3
:101F930035F07A7E20E70B0ACB33CBCD33CDCC3370
:101FA300CC33CB3350147004ED30E00ED2F1E4CDDA
:101FB3003DCDCC3CCC3B5005DA05C2F1EB547FC69A
:101FC3003308E63392F0FBE73309E733C39A502D26
:101FD3002B70190C0D4C4D70151806E608C33370A1
:101FE3000D20F10AA2F013F6E418800B4024E4F666
:101FF30030F002768018F618F618F68024D33B14D6
:10200300501074FFA2F013F6187680E418F618F651
:10201300800FA2F013F618E63303F618ECF618ED6A
:10202300F6D0E0FDD0E0FCD0E0FBD0E0FA22121DB8
:10203300DB6046121DCC603DE9687008F618F6189F
:10204300F618F622748067F712206509090974806F
:1020530067F722121DCC601D121DDB7005191919BB
:10206300801A121DA4701F121DB8C37003E66733D4
:1020730019191940071818182208080874FFF618C8
:10208300F618F618F622121DB86017121D9B702160
:1020930092F0121D927019501720F01408080809C5
:1020A3000909E7F61819E7F61819E7F61819E7F614
:1020B30022121D9260E6E869701F0808E62480F684
:1020C30008E436F618547FB47F0CE654806007F6B4
:1020D300E418F618F622181822E9C6CC08C6CD086B
:1020E300C6CE08C6CFC0E0E8C0E0EAC0E0EBC0E07F
:1020F30009E9F809E7FA09E7FBE6F918E6F8C3EC9A
:1021030098ED99EE9AEBC2E7F5F0EFC2E795F05040
:102113000E600CEBCFFBEACEFAE9CDF9E8CCF8EA96
:10212300A2E7D2E7FAEB33FB13F5F0EEA2E7D2E72F
:10213300FEEF33FFC5F013A2E730E601B313C5F09A
:10214300C3C0E0C0F07F00C39BFB605E9418600FC8
:10215300401D14601AD0E023F9D0E0F80222378A38
:10216300F0E9486003D2F0E4AFF0FAF9F8803BEB12
:1021730030E40D89F0EA6003D2F0E4AFF0F9CAF875
:10218300EB30E30D88F0EF6002D2F0AFF0E4CAC9A0
:10219300F8EB54076014FBC3EA13FAE913F9E813E5
:1021A300F8EF135002D2E0FFDBEDD0E0C0E030E700
:1021B30039C3E49FFFF5F0EC98FC42F0ED99FD4242
:1021C300F0EE9AFE42F0D0E0F9D0E0F8E5F0607A64
:1021D300E923F9EE20E742D8028067C3EF33FFEC2F
:1021E30033FCED33FDEE33FE80EAEC28FCED39FDE4
:1021F300EE3AFED0E023F9D0E0F84002801BC3EEB4
:1022030013FEED13FDEC13FCEF135002D2E0FF08B5
:10221300B800067F7F74FF802EEF3350178CF020B9
:10222300F00260100CBC000C0DBD00080EBE0004D3
:1022330008E860DFE933E813FFEE2313FE4F4D4C4C
:102243008008E95480FFE4FEFDFCEE33EF33F470C5
:1022530004FCFD7E80D0E0FBD0E0FAD0E0F8D0E0D3
:10226300CFC618CEC618CDC618CCC6F922121DCCBF
:10227300700418181822121DDB700D74FFF618195C
:10228300F61819F61819F622E7548066F6121D920D
:10229300700F121D9B70F014F608F608F608F6800E
:1022A300D1121D9B700CF608F608768008E6447F71
:1022B30080EC121DBB700C121DA760BFE65480F6A4
:1022C300E480BB121DA7700519191980A5E8697070
:1022D3000C763F18768018F618F6E8F922E6CDC09A
:1022E300E018ECC0E0E633CD33CDD313F6E719FCA9
:1022F300E7191933CC33C3947F400ECD9D50240886
:10230300E65480F6E418F6800FF4043D14501408E4
:10231300E6447FF6187680E418F618F6D0E0FCD091
:10232300E0FD22CCD313CCFD18E4C6CBC0E018E407
:10233300C6CAC0E00808ED08C633E613F618E4334E
:10234300C675F003C3CA97CA09CB97CB199C40043F
:102353007D08802EBD000302241916B6FF0506066C
:10236300081618C3CA33CACB33CB33CA27CA09CB1F
:1023730037CB193CC37D08803E187D0820E75CC637
:1023830033C6CA33CACB33CB33DDF1D5F0EB30E7F9
:102393007BCA97CA09CB974ACB199C406F4B7025D0
:1023A300E620E0218066187D08C3CA97CA09CB9747
:1023B300CB199CD3C633C6CA33CACB33CB3350C92C
:1023C300DDE7D5F0E1D3E4C636C608C636C608C68F
:1023D30036C608C636C61818188031C3CA97CA0944
:1023E300CB97CB199CB34097C633C6CA33CACB33FA
:1023F300CB33DD34D5F02EC6A2E0C640C8CA27CA07
:1024030009CB37194A70BECB3CB480B90808E63310
:1024130008E633601F181818D0E0FAD0E0FBD0E0CC
:10242300FCD0E0FD22187D08CA27CA09CB37CB1997
:102433003CD3808013F618E4B67F11F618B6FF0E6E
:10244300F618C60470D20808768080CAF618F61803
:10245300F680C5080808EAC0E0EBC0E086F0E7A410
:10246300FA180986F0E7A42AFA180986F0E7A42ADD
:10247300FA180986F0E7A42AFA1986F0E7A4FBE51F
:10248300F02AFA190886F0E7A42BFBE5F03AFA19CB
:102493000886F0E7A42BFBE5F03AFA18180986F052
:1024A300E7A4C5F02BFBE43AFA1908E7C5F0C6A484
:1024B30026F6E5F03BFBE43AFA1886F0E7A4F6E5E6
:1024C300F00826F6E43B08F6E43A08F6D0E0FBD041
:1024D300E0FA22E4CFC0E0E4CEC0E0E4CDC0E0E423
:1024E300CCC0E075F020E626F608E633F608E633BE
:1024F300F608E633F6181818EC33FCED33FDEE332B
:10250300FEEF33FFC3EC9709ED9709EE9709EF97B9
:10251300191919400FFFEC97FC09ED97FD09EE9788
:10252300FE191906D5F0BFECF709EDF709EEF70927
:10253300EFF7191919D0E0FCD0E0FDD0E0FED0E0B0
:10254300FF22181818E4C396F608E496F608E496F2
:10255300F608E496F6226016080808C6C313C618E0
:10256300C613C618C613C618C613C6D5E0EA22702A
:1025730009080808226016181818C6C333C608C607
:1025830033C608C633C608C633C6D5E0EA22E627F3
:10259300F60809E637F60809E637F60809E637F6D6
:1025A30022E026F608A3E036F608A3E036F608A3F1
:1025B300E036F622E026F008A3E036F008A3E03682
:1025C300F008A3E036F022C3E697F60809E697F68B
:1025D3000809E697F60809E697F622C3E0C696F6D9
:1025E30008A3E0C696F608A3E0C696F608A3E0C6DD
:1025F30096F622C3E096F008A3E096F008A3E096CF
:10260300F008A3E096F022E657F60809E657F60825
:1026130009E657F60809E657F622E056F608A3E05E
:1026230056F608A3E056F608A3E056F622E056F065
:1026330008A3E056F008A3E056F008A3E056F02202
:10264300E066F608A3E066F608A3E066F608A3E0F2
:1026530066F622E0F608A3E0F608A3E0F608A3E096
:10266300F622E6F008A3E6F008A3E6F008A3E6F0F6
:1026730022E0FAA3E0FBA3E0FCA3E0FD22EAF0A33F
:10268300EBF0A3ECF0A3EDF022E0F8A3E0F9A3E074
:10269300FAA3E0FB22E8F0A3E9F0A3EAF0A3EBF04E
:1026A30022CAC0E0E6F0A308DAFAD0E0FA22CAC0F0
:1026B300E0E0A3C582CCC582C583CDC583F0A3C5A5
:1026C30082CCC582C583CDC583DAE6D0E0CA22C3F6
:1026D300E498F8E499F91227138026C3E49AFAE4FC
:1026E3009BFBE920E7E9122713E498F8E499F92220
:1026F300C3E498F8E499F9122713E498F8E499F9F4
:10270300C3E49AFAE49BFB22EB20E7CFE920E7E05E
:10271300B90010BB0008E88AF084F8AAF022E4FBB1
:10272300C8FA22EB70227B10C833C8C933C93350AF
:1027330007C39AC3DBF280069A50012ADBEAC83347
:10274300F4C8C933F4C9FA2275F008E4C833C8C918
:1027530033C933C99AC99B5004C92AC93BD5F0EC84
:10276300FBC833F4C8E4C9FA22600D08C6A2E71314
:10277300C618C613C6D5E0F322600C08C6C313C639
:1027830018C613C6D5E0F422700422600D18C6C320
:1027930033C608C633C6D5E0F41822251810AF088F
:1027A300F518400C15198008F51840021519D2AF19
:1027B3002200C0D0251810AF08F518500C05198059
:1027C30008F51850020519D2AFD0D0222518F5828A
:1027D30010AF08F518400C15198008F518400215BC
:1027E30019D2AF851983222518F582E43519F583AB
:1027F300222518F8E43519F9222518FAE43519FBCE
:10280300222518FCE43519FD22E4732518C582C07E
:10281300E0E51934FFC583C0E0E518C3958224F8C9
:1028230010AF0885831985821880088583198582EE
:1028330018D2AFCEF0A3E520F0A37808E608F0A302
:10284300DEFAEFF0A3E58124FAF8E608F0A3E60840
:10285300F0A3E608F0A30808E608F0A3E608F0A34F
:1028630015811581D0E0FED0E0F815811581158121
:10287300E8C0E0EEC0E0222518C582C0E0E51934C7
:10288300FFC583C0E0E518C3958224F910AF08851E
:1028930083198582188008858319858218D2AFCE63
:1028A300F0A3E520F0A37808E608F0A3DEFAEFF042
:1028B300A3E58124FBF8E608F0A3E608F0A30808E3
:1028C300E608F0A3E608F0A315811581D0E0FED059
:1028D300E0F815811581E8C0E0EEC0E02285198398
:1028E300851882E0A3FEE0A3F5207808E0A3F608AC
:1028F300DFFAE0A3FFE0A3C0E0E0A3C0E0E0A3C0F1
:10290300E0E0A3C0E0E0A3C0E010AF088582188533
:1029130083198008858218858319D2AFD083D0822A
:1029230002011F851983851882E0A3FEE0A3F52029
:102933007808E0A3F608DFFAE0A3FFE0A3C0E0E035
:10294300A3C0E0E0A3C0E0E0A3C0E010AF0885822D
:10295300188583198008858218858319D2AFD0839F
:10296300D08222C0D02518C582C0E0E51934FFC546
:1029730083C0E0E518C3958224F310AF088583195B
:102983008582188008858319858218D2AFC8F0A381
:10299300E9F0A3EAF0A3EBF0A37908E709F0A3D8E1
:1029A300FAECF0A3EDF0A3EEF0A3EFF0A3D0E0F088
:1029B300A3D0E0F0A3D0E0F0A3E520F0A3E5F0F08E
:1029C300A322851983851882E0C0E0A3E0F9A3E080
:1029D300FAA3E0FBA37808E0F608A3DFFAE0FCA380
:1029E300E0FDA3E0FEA3E0FFA3E0C0E0A3E0C0E0BE
:1029F300A3E0F5D0A3E0F520A3E0A3F5F010AF0822
:102A03008583198582188008858319858218D2AF3A
:102A1300D082D083D0E0F8D0E03274048006740210
:102A230080027401C0E0F4041227CFD0E01226A480
:102A3300227404800474028000CCC0E0EDC0E0E5A1
:102A430018C39CCCAD1950011D10AF068C188D19FD
:102A530080068C188D19D2AF1226B1D0E0FDD0E0DC
:102A6300FC22D083D082E9C0E0E493A3C386F0C5FF
:102A7300F095F0F908E493A386F0C5F095F0700B98
:102A8300E493A3C3994005E9048002A3E475F0022B
:102A9300A42582F582E5F03583F583D0E0F9E4934C
:102AA300A3C0E0E493C0E022D083D082ECC0E0ED89
:102AB300C0E0E493A3FCE493A3FDED4C600D122A64
:102AC300F7EC24FFFCED34FFFD80EFE493A3FCE47B
:102AD30093A3FDED4C600D122B36EC24FFFCED347B
:102AE300FFFD80EFD0E0FDD0E0FCE493A3C0E0E481
:102AF30093C0E022C0E0C3E4939608740193961850
:102B0300400FE493667008087401936618700070B0
:102B130019A3A3C3E49396087401939618A3A3403F
:102B23000DD0E0D0E0D0E0022AE7A3A3A3A3A3A3A0
:102B3300D0E022C0E0C0F088F0E493667008087427
:102B4300019366187000A8F0A3A3700BD0F0D0E037
:0E2B5300D0E0D0E0022AE7A3A3D0F0D0E02229
:102B640074F612287AEAFEEBFF8C088D09EE243401
:102B7400F8E43FF9E8FCE9FD122C96E0FAEE24377C
:102B8400F582E43FF583E0F88508F0A4C885F00AEF
:102B94008509F0A4250AF9EA28F8E439F97A257BAD
:102BA40000122713EA8C828D83F0FA131313541F37
:102BB400F8EE28F8E43FF9E8245DF582E439F5837A
:102BC400E0C0E074075AF8D0E0B800028004C313F0
:102BD400D8FCA2E05003EA8020EE2436F582E43FDC
:102BE400F583E0F5F0EA84A8F0EE28F8E43FF9E88C
:102BF4002438F582E439F583E0F97F030229267449
:102C0400F512287AEAFEEBFFEE2434F582E43FF570
:102C140083E0C0E0122C96D0E0F08E828F83A3A3D1
:102C2400A3A3A3E0FAA3E0FB8E828F83A3A3A3A3B1
:102C3400A3A3A3E0C39AF508A3E09BF509EE247FC0
:102C4400F8E43FF9880A890B8882F583E06401700F
:102C54002CEE2480F582E43FF583EA2401F8E43B7A
:102C6400F9E0687003A3E06970137C1A7D08EEFA3A
:102C7400EFFB121005850A82850B83E4F0AC08ADE6
:102C840009EEFAEFFB122B64E9F91235077F04020F
:102C94002926EE2435F582E43FF58322C082C083E1
:102CA400851882851983E0F8A3E0F9C3EA9CEB9DBB
:102CB4005010C3EC98ED99401BC3EA98EB9950145B
:102CC400800EC3EA98EB994007C3EC98ED99400451
:102CD400790180027900D083D08222EAC39CFAEB86
:102CE4009DFB2274ED12287A9004C3E06408600509
:102CF400E06407702C9061C8E060269004F1E0F86D
:102D040074FF68601CE875F00DA4C8AAF02AF97471
:102D1400F328FE740439FF8E828F83A3A3A3E0708B
:102D2400057900022E89EE2468F50EE43FF50F9034
:102D34006060E0850E82850F83F07510B47511080C
:102D4400750800750900E5D914F50AE5D95403F5A9
:102D54000B601FEE2483F50CE43FF50D7403650B43
:102D64006059E50A6017EE2467F582E43FF583E0D5
:102D7400700B793DEEFAEFFB12103580A49008AF8A
:102D8400E064016023850C82850D83E060047A048D
:102D940080027A00E50AC39AFA95E0FB120DE98AEB
:102DA400088B09EA45097006121323022D25850CA8
:102DB40082850D83E070048A108B117A008014E5FB
:102DC400D9C0E0EAF8E51028F582E43511F583D09E
:102DD400E0F00AEAC3950A40E6850C82850D83E09B
:102DE400602874FC250AF50A7810122A21AC0AA975
:102DF4000BEEFAEFFB1210EF74021227B4E9700A1B
:102E0400AA08AB091218C9022D767403650B605425
:102E1400850A0C750D00780C122A21AC10AD11AA8C
:102E240008AB091210B374021227B4850E82850F01
:102E340083E0F87480687005750C7F8002880CE567
:102E44000CF50D780D122A25780B122A25A90AAC47
:102E540008AD099004F1E0FA7B00120C0974021227
:102E640027B4801C9004C3E06408AC10AD11700951
:102E7400EEFAEFFB12111F8007EEFAEFFB1211D9E5
:102E840012132F79017F0C02292674F312287A7405
:102E9400FC12279EEAFEEBFF8909A2AFE433F50892
:102EA400C2AFEE2463F50AE43FF50B8010AA0AAB27
:102EB4000B12106B1218C9900821E004F0850A82E5
:102EC400850B83E0F8A3E0F9E849602DE82402FAD1
:102ED400E439FBEA2402F50CE43BF50D780C122AE4
:102EE400218A828B83E0FCA3E0F9EEFAEFFB121057
:102EF4005F74021227B4E960B4900821E0604D9039
:102F04000822E0F8900821E0C398500C7402650987
:102F1400703A900823E060348E828F83A3A3A3A326
:102F2400E0851882851983122F6074021227EAE85B
:102F3400122F60900820E028F07402122804AA18C6
:102F4400AB197901120C69900821E4F0E508A2E0BC
:102F540092AF74041227B47F06022926F0A3E4F08A
:102F6400900821E0F82200008521878522C622C02E
:102F7400E074EB122966A2AFE433F508C2AF759B87
:102F840000906182E0A2E05030E591A2E0502A7501
:102F940091FE740165217021123106121233123030
:102FA400F4122A341232B174041227B4E9640170A1
:102FB400057901121281122CE7906182E0A2E5509A
:102FC4005DE591A2E550577591DF9004C3E0640775
:102FD4006005E06408702F12310674016521703EAB
:102FE4001212331230F4122A341232B1740412273A
:102FF400B4E96401700579011212817901EEFAEFE6
:10300400FB122E8E8018E0640D70139004E5E0042A
:10301400F064287002E4F07A00E0F912133590614C
:1030240082E0A2E640030230C9E591A2E640030231
:1030340030C97591BF9004C3E06405700812121B77
:10304400121227800312122175210012129FE99097
:1030540004C4F07900121281120F277A017B0090C8
:1030640004C2E0F9121899907803E0644270569013
:1030740008B3E014F0704EC2AF12308000782AD04A
:10308400E0F618D0E0F6E59F5407F87005750DFFDB
:103094008003750D7FC4C0E07829E6F50A08E6557B
:1030A4000DF50B740B780A12277CD0E0250AF890F2
:1030B4006270E0A2E740F8E8C333906272F0906275
:1030C40070E0D2E0F0906181E0A2E35009E5E9A26A
:1030D400E3500375E9F7A3E0A2E75009E591A2E7FD
:1030E400500375917FE508A2E092AF7F080229C5DD
:1030F4008E828F83E0F8A3E0C82416F582E438F5C5
:1031040083229004F1E0F875F00DA4C8AAF02AF91E
:1031140074F328FE740439FF22C0E0C0D0C082C01A
:1031240083906183E0A2E05009E5BFA2E0500375FB
:10313400BFFEE0A2E15009E5BFA2E1500375BFFD67
:10314400E0A2E25009E5BFA2E2500375BFFBE0A292
:10315400E35009E5BFA2E3500375BFF7E0A2E450D2
:1031640009E5BFA2E4500375BFEFE0A2E55009E50D
:10317400BFA2E5500375BFDFE0A2E65009E5BFA298
:10318400E6500375BFBFD083D082D0D0D0E032C028
:10319400E074F2122966E5A7A2E4500FE5A1A2E4C7
:1031A400500953A7EF75A1EF1231E7E5A7A2E55047
:1031B4000CE5A1A2E5500653A7DF75A1DFE5A7A2A0
:1031C400E15009E5A1A2E1500375A1FDE5A7A2E242
:1031D400500CE5A1A2E2500653A7FB75A1FB7F01A9
:1031E4000229C574F812287A7521019004C3E06499
:1031F4000670077A007B00121203A2AFE433FED2FA
:10320400AF9004C9E0640170187A207B009004C276
:10321400E0F91219D17A207B009004C2E0F9121867
:103224009F906182E0D2E6F09008B0E0602185C60C
:103234002280169004C8E064017008E5C654F8447E
:1032440005F5C653BEFC122F6C7401652160E4EED3
:10325400A2E092AF7F010229260000008E238F2472
:10326400858228858327851882851983E0CEA3E08B
:10327400CF852882852783EBC9EAC8EDCBECCA75D4
:10328400F010C3E833C8E933C9EA33CAEB33CBC31C
:10329400EA9EF526EB9FF525B35004AB25AA26EC50
:1032A40033CCED33CDD5F0DAAE23AF242274F11252
:1032B400287A8A088B098C0A8D0B9095E878081275
:1032C400261D740F1227EA780C1226569095E8787A
:1032D4000C12261D7808790C121C4C909604501080
:1032E4007808790C1225CA7808121C6C4014800ED8
:1032F400780C79081225CA780C121C6C50047901D8
:10330400800279007F0802292674ED12287A8A083F
:103314008B098C0A8D0B9095E8780812261D74137E
:103324001227EA780C1226569095E8780C12261D7E
:10333400780C7908121C4C40117808790C1225CAB3
:10334400AA08AB09AC0AAD0B8022751000751100F8
:103354007512007513017810790C1225CA7810794A
:1033640008122591AA10AB11AC12AD137F0C0229DF
:10337400269095E878081226568A828B837808125C
:1033840026307F0402292674F512287A8C828D83D4
:1033940078081226568A828B8378081225F612330F
:1033A400DFC3E098F0A3E0991233D1401E90963821
:1033B40078081226568A828B8378081225B78E8263
:1033C4008F83E02420F0A3E0344EF080A4F08E82BA
:1033D4008F83C3E09420A3E0944E22EA2404F8E40B
:1033E4003BF9E8FEE9FF8C828D83A3A3A3A3E0F855
:1033F400A3E0F98E828F832274F512287AE9FE9075
:10340400083CE0FAA3E0FBEE29F8E433F974B728AA
:10341400F582749139F583E02AF508A3E03BF509B8
:103424007808122A219096001226741232607402CF
:103434001227B48A088B098C0A8D0B741078081231
:103444002559AA08AB097F0402292674F112287AA7
:103454008A0C8B0D8C0E8D0F74111227EA122A38E8
:1034640074111227EAE02401F508A3E03400F509F9
:10347400E4F50AF50B780C79081224569095E47853
:1034840008122656780C7908122456AA0CAB0DACF7
:103494000EAD0F12326074021227B48B09EA45098B
:1034A40060047A0180027A00EC2AFCE43DFD741386
:1034B4001227EAE0F8A3E0F9E8FEE9FFECF8EDF9F9
:1034C4007A717B0212271388088909E4F50AF50B3F
:1034D4008E828F837808122665ECF8EDF97A717B79
:1034E400021227138A088B097405780812278B8E19
:1034F400828F83A3A3A3A3E508F0A3E509F07F08C3
:10350400022926C082C083E9906000F0D083D08273
:1035140022C0E074F2122966A2AFE433FED2AFC235
:10352400C0E5D1A2E4500675D10F1217F1EEA2E066
:1035340092AF7F010229C5C0E074F2122966A2AFDE
:10354400E433FED2AFE589A2E14006E589A2E25068
:1035540003121773758900758900C2C5EEA2E09243
:10356400AF7F010229C5C0E074F2122966A2AFE45C
:1035740033FED2AFE58BA2E05003121773758B00B4
:10358400C2E8EEA2E092AF7F010229C5C0E0C0D03C
:10359400E8C0E0A2AFE433F8D2AFC2C7E8A2E09239
:1035A400AFD0E0F8D0D0D0E032C0E0C0D0E8C0E086
:1035B400E9C0E0EAC0E0EBC0E0C082C083A2AFE4AF
:1035C40033F9D2AF90114DE0F890114EE068700BD2
:1035D400539AFB90114F7401F0802EC2E990114D63
:1035E400E0F874012890114DF0E8FA7B0074CD2ABC
:1035F400F58274103BF583E0F5C190114DE0C3945E
:1036040080400690114D7400F0E9A2E092AFD0839F
:10361400D082D0E0FBD0E0FAD0E0F9D0E0F8D0D00E
:10362400D0E032C2AF0200002202011FFFFFFFFF01
:10363400FFFFFFFFEAF8EBF9E824FFFAE934FFFBA8
:10364400E84960217800790078DC7905C3E89401C1
:10365400E99400A2D265D03340DA00E824FFF8E907
:1036640034FFF980E702011F74F712280E890878E5
:1036740000800108E8C395085022E8FE7F00EA2E86
:10368400F582EB3FF583E0F9E8FE7F00EC2EF5824E
:10369400ED3FF583E06960DB7900800279017F0109
:1036A4000228E074F012280EE9FE7C00750800750B
:1036B4000900750A00750B00803A909664780C1224
:1036C40026567808790C122456ECF87900EA28F585
:1036D40082EB39F583E0F87900E824D0F50CE9347D
:1036E400FFF50DE50D3395E0F50EF50F7808790C2F
:1036F4001225910CECC39E500FECF87900EA28F5E2
:1037040082EB39F583E070B2AA08AB09AC0AAD0BC1
:103714007F080228E074F712280E74EF12279E9097
:103724009144AC18AD1974111226B178FB7919883B
:103734008289837430F088828983A3A882A98388CC
:103744008289837478F088828983A3A882A983EA12
:103754002406FA50010B7E06806AEA24FFFAEB3451
:10376400FFFB8A828B83E0C4540FFC7D00851882A2
:10377400851983E5822CF582E5833DF583E0C0E07D
:1037840088828983D0E0F088828983A3A882A98370
:103794008A828B83E0FC7D00EC540FFCED5400FD29
:1037A400851882851983E5822CF582E5833DF583AE
:1037B400E0C0E088828983D0E0F088828983A3A86E
:1037C40082A9831EEE7093888289837400F07AFB49
:1037D4007B1974111227B47F010228E0C082C083D0
:1037E4007C427D197AB6798012199BE9D083D08204
:1037F40002011F74F712280EE9FEEE6003023892EC
:103804009019427404F09019437400F090194474B0
:1038140000F09019457400F07C757D937A467B190D
:10382400121BF99019527400F07C777D957A537BC2
:1038340019121BF990195A7400F07C0D7D0079005F
:103844007A5B7B191218579019757400F0901976E9
:103854007400F07C787D0079007A787B191218570F
:103864009019F07400F0A37400F09019F27400F051
:103874009019F37400F09019F47400F09019F57431
:10388400F4F0A37401F09019F77400F0802B740124
:103894006E70267C0D7D0079007A5B7B19121857B7
:1038A4009019757400F09019767400F07C787D009E
:1038B40079007A787B191218577C007D0079007A98
:1038C400097B041215EDE9121A4F7F010228E074F6
:1038D400F412280E74D312279E901942E0F508754D
:1038E40009007808122A217C9E7D8E74021227FC1E
:1038F400121BF974021227B4AA18AB191218398AC8
:10390400088B09AC08AD09AA18AB191218037A641C
:103914007B00121A37901943E0F5087509007808FE
:10392400122A217C237D8F74021227FC121BF97446
:10393400021227B4AA18AB191218398A088B09ACD9
:1039440008AD09AA18AB191218037A647B00121A7D
:1039540037901944E0F5087509007808122A217C8B
:10396400EF7D8E74021227FC121BF974021227B425
:10397400AA18AB191218398A088B09AC08AD09AA20
:1039840018AB191218037A647B00121A3790194580
:10399400E0F5087509007808122A217CE67D8F7409
:1039A400021227FC121BF974021227B4AA18AB19CD
:1039B4001218398A088B09AC08AD09AA18AB191278
:1039C40018037A647B00121A37750846750919784A
:1039D40008122A217C427D9074021227FC121BF9E2
:1039E40074021227B4AA18AB191218398A088B0961
:1039F400AC08AD09AA18AB191218037A647B00123B
:103A04001A37901952E0F5087509007808122A212E
:103A14007C2B7D9074021227FC121BF9740212276E
:103A2400B4AA18AB191218398A088B09AC08AD0965
:103A3400AA18AB191218037A647B00121A37750896
:103A4400537509197808122A217C147D9074021286
:103A540027FC121BF974021227B4AA18AB19121806
:103A6400398A088B09AC08AD09AA18AB19121803D6
:103A74007A647B00121A3790195AE0F50875090028
:103A84007808122A217CFD7D8F74021227FC121BF8
:103A9400F974021227B4AA18AB191218398A088BC0
:103AA40009AC08AD09AA18AB191218037A647B0093
:103AB400121A3775085B7509197808122A217CB91E
:103AC4007D8E74021227FC121BF974021227B4AA09
:103AD40018AB191218398A088B09AC08AD09AA1851
:103AE400AB191218037A647B00121A377508007533
:103AF4000900023B889092FA7420122804740D1273
:103B040026B1750A0C750B00780A122A21A808A997
:103B140009E875F00CA4C8AAF075F000A42AFA7597
:103B2400F00CE9A42AF9747828FC741939FD74227C
:103B34001227FC12183F74021227B474201227F4BF
:103B4400880A890B780A122A217808122A217C2DE6
:103B54007D9374041227FC121BF974041227B4AA6F
:103B640018AB191218398A0A8B0BAC0AAD0BAA18B8
:103B7400AB191218037AC87B00121A370508E50836
:103B840070020509901975E0F87900C3E50898E515
:103B94000999A2D265D0335003023AF99019F01270
:103BA4002A387C587D8E74021227FC121BF9740289
:103BB4001227B4AA18AB191218398A088B09AC0851
:103BC400AD09AA18AB191218037A647B00121A37CC
:103BD4009019F2E0F5083395E0F5097808122A21E6
:103BE4007C597D9074021227FC121BF9740212276F
:103BF400B4AA18AB191218398A088B09AC08AD0994
:103C0400AA18AB191218037A647B00121A37901998
:103C1400F4E0F5087509007808122A217C097D8FE3
:103C240074021227FC121BF974021227B4AA18ABEF
:103C3400191218398A088B09AC08AD09AA18AB19EE
:103C44001218037A647B00121A379019F5122A3875
:103C54007C2E7D8E74021227FC121BF9740212272B
:103C6400B4AA18AB191218398A088B09AC08AD0923
:103C7400AA18AB191218037A647B00121A37901928
:103C8400F7E0F5087509007808122A217CD47D8EA6
:103C940074021227FC121BF974021227B4AA18AB7F
:103CA400191218398A088B09AC08AD09AA18AB197E
:103CB4001218037A647B00121A37742D1227B47F0A
:103CC400040228E0C082C083901952E0F9D083D066
:103CD4008202011FC082C083121A61E9640170105C
:103CE400901A79E064027004790180127900800EE0
:103CF400901A84E064067004790180027900D0830C
:103D0400D08202011F74F412280E74F412279EEA62
:103D1400FEEBFF121A61E964016003023DD27508EB
:103D24000080020508901975E0F8E508C39850333F
:103D3400AA18AB19A908121A73E96027750A0C7539
:103D44000B00780A122A21EEFCEFFD74021227FC04
:103D540012185174021227B4E960C8E50890197763
:103D6400F0806B75080C7509007808122A21EEFCA6
:103D7400EFFD901976E0F87900E875F00CA4C8AA74
:103D8400F075F000A42AFA75F00CE9A42AF9747805
:103D940028FA741939FB12183F74021227B49019C7
:103DA40076E0901977F0901976E02401F090197676
:103DB400E075F00A84E5F0901976F0901975E0C387
:103DC400940A5007901975E02401F0121A4F740CEC
:103DD4001227B47F040228E074F412280E8908EA3A
:103DE400FEEBFF121A61E964017048901975E0F85E
:103DF400E508C398503D750A0C750B00780A122A21
:103E040021E508F87900E875F00CA4C8AAF075F06B
:103E140000A42AFA75F00CE9A42AF9747828FC7431
:103E24001939FDEEFAEFFB12183F74021227B47928
:103E340001800279007F040228E002011FC082C0D1
:103E440083901944E0FD901943E0FC901942E0F995
:103E54007ACD7B1A1217F7121A61E96401700D7C8E
:103E6400157D007A9E7B90121803800B7C187D00D0
:103E74007A557B8F121803D083D08202011F74EC11
:103E840012280E7E31750C00750D00750E40750FED
:103E940040121BB78A088B09A808A909EEFA7B000F
:103EA400E8C39AF508E99BF509E5093395E0F50AB5
:103EB400F50B7808121C8B909668781012265678A9
:103EC4000C7910121EB17808790C1222707808123D
:103ED4002A1D909668122674121BED74041227B4DE
:103EE4007F0C0228E074F512280E780079007C001B
:103EF4007D007E007F007508E8750903901A14E0C0
:103F04006405600302408A901A15E0F8A3E0F9E81A
:103F140075F002A4C885F00A75F000A4250AF50A14
:103F240075F002E9A4250AF9740A28F582741A398D
:103F3400F583EAF0A3EBF0901A15E02401F0A3E076
:103F44003400F0901A15E0F8A3E0F97A057B00122A
:103F5400270B901A15EAF0A3EBF0780079000240E1
:103F64005CE8FAE9FBEA75F002A4CA85F00A75F088
:103F740000A4250AF50A75F002EBA4250AFB740ACD
:103F84002AF582741A3BF583E0FAA3E0FBC3EE9AA8
:103F9400EF9BA2D265D0335028E8FAE9FBEA75F02A
:103FA40002A4CAAEF075F000A42EFE75F002EBA4D4
:103FB4002EFB740A2AF582741A3BF583E0FEA3E013
:103FC400FFE8FAE9FBEA75F002A4CA85F00A75F085
:103FD40000A4250AF50A75F002EBA4250AFB740A6D
:103FE4002AF582741A3BF583C3E09508A3E095098A
:103FF400A2D265D033502EE8FAE9FBEA75F002A4A8
:10400400CA85F00875F000A42508F50875F002EBE0
:10401400A42508FB740A2AF582741A3BF583E0F59B
:1040240008A3E0F509E8FAE9FBEA75F002A4CA85F9
:10403400F00A75F000A4250AF50A75F002EBA42530
:104044000AFB740A2AF582741A3BF583E02CFCA35C
:10405400E03DFD08E8700109C3E89405E99400A275
:10406400D265D0335003023F65ECC39EF8ED9FF94F
:10407400E8C39508F8E99509F97A037B0012270B40
:10408400E8FAE9FB8036901A14E0F87900E875F054
:1040940002A4C8ACF075F000A42CFC75F002E9A4ED
:1040A4002CF9740A28F582741A39F583EAF0A3EB23
:1040B400F0901A14E02401F07A007B007F030228B8
:1040C400E074F012280E74E012279EE9FEEE9019B7
:1040D400F2F0121A67E97003024172EEFA3395E0C6
:1040E400FB121A858A088B098C0A8D0B90966C78C2
:1040F4000C1226567808790C121EB17808121D038A
:10410400AA08AB09121A8B8A088B097808122A218B
:10411400EEF404F5087509007808122A217C557D0F
:104124009174041227FC121BF974041227B4901919
:10413400F9E0603AAA18AB19121C0B8A088B09AC77
:1041440008AD09AA18AB19121803AA18AB19121C46
:104154000B8A088B09AC08AD09AA18AB19120549DA
:10416400E97A107B00901A44E0F9121899E9742056
:104174001227B47F080228E074F612280E74E8129D
:10418400279E908F86AC18AD1974181226B1750845
:10419400537509197808122A217C5C7D92740212E5
:1041A40027FC121BF974021227B4AA18AB191218AF
:1041B400398A088B09AC08AD09AA18AB191218037F
:1041C40074181227B47F020228E07A467B19020190
:1041D4001FC082C083121AE5D083D08202011FC09F
:1041E40082C08390195AE0F9D083D08202011F74EF
:1041F400F012280E79067A537B19121A438A0C8B13
:104204000D8C0E8D0F850C08850D09850E0A850F02
:104214000B909600780C1226567808790C1224D646
:10422400AA0CAB0DAC0EAD0F7F080228E0C082C013
:1042340083901945E064027004790180027900D00A
:1042440083D08202011FC082C083901945E07004AC
:10425400790180027900D083D08202011F74F612A2
:10426400280E9019FAE0640370047900807690199E
:10427400FAE0640160089019FAE06404704190194E
:1042840075E0605E75080C7509007808122A2190A3
:104294001977E0F87900E875F00CA4C8ACF075F073
:1042A40000A42CFC75F00CE9A42CF9747828FC7497
:1042B4001939FD12183F74021227B4790180259030
:1042C40019FAE06402701B75080C7509007808126D
:1042D4002A217C687D1912183F74021227B47901CF
:1042E400800279007F020228E074F612280E9019E9
:1042F400F5E0F508A3E0F509AA08AB09E4FCFD7FA5
:10430400020228E074EB12280E74F412279E8A1419
:10431400750B147405551470030245347E007F0038
:104324009019F87400F0901CC0E0640170421218F7
:104334000F8A088B09AE08AF09EE4F6030C3EE94C4
:1043440015EF940040047E147F00EEFAEFFB12197F
:104354001D8A0A8B0B850A08850B09EEFCEFFDAA62
:1043640008AB091217FDAA08AB0912192302453438
:1043740012180F8A088B09AE08AF09EE4F7015901A
:104384001A1B7400F0A37400F0A37400F0A374006B
:10439400F0024534901A1B12268CE8494A4B7029C6
:1043A4001219E3EAF8EBF9ECFAEDFB901A1712266E
:1043B40098EEFCEFFDE4FEFF901A1BECF0A3EDF089
:1043C400A3EEF0A3EFF0024534121A67E970057505
:1043D4000B168003750B141219E38A0C8B0D8C0ECB
:1043E4008D0FE50BF87900C3EE98EF99502990955D
:1043F400FCC082C083850C10850D11850E12850FBB
:1044040013901A1778101225DED083D082781012F8
:104414001C6C4003024534750A00E50BFA7B00125C
:10442400191D8A108B11851008851109E5084509A5
:10443400700E7C047D007AAE7B951218030245341D
:10444400E50BF87900C3E89EE99F5005850B0A80C7
:1044540003EEF50A121A67E960030244E2E50AFC76
:104464007D00AA08AB091217FDE50AC3940340476F
:10447400E50AF87900E50828F8E50939F9E824FEA1
:10448400F582E934FFF583E0640D702BE50AF879D1
:1044940000E50828F8E50939F9E824FFF582E9344C
:1044A400FFF583E0640A700FE50AFC7D00AA08ABFF
:1044B40009121AD3E98002740070497CD57D94AA4C
:1044C40018AB19121BF9AA18AB191218398A108BD8
:1044D40011AC10AD11AA18AB191218038026E50A05
:1044E400FC7D00AA08AB091217FDE50AFC7D00AAB1
:1044F40008AB09120549E97A107B00901A44E0F9E7
:10450400121899E9901A17780C122665E50AF879B9
:1045140000EEC398FCEF99FDE4FEFF901A1BECF04B
:10452400A3EDF0A3EEF0A3EFF0AA08AB0912192350
:10453400740C1227B47F0D0228E074E912280E745B
:10454400B912279EEAFEEBFF8C088D0975140175DC
:1045540015007404650870047400650970347904E6
:104564007CBD7D95EEFAEFFB121A3DE960247CB325
:104574007D95AA18AB19121BF9AA18AB1912183990
:104584008A088B09AC08AD09AA18AB1912180302E2
:10459400554B740865087004740065097016790831
:1045A4007C3E7D94EEFAEFFB121A3DE96006121A86
:1045B4005B02554B740A6508700474006509600356
:1045C40002468B79077CF57D94EEFAEFFB121A3DD7
:1045D400E9700302468B8E828F83A3A3A3A3A3A3B4
:1045E400A3E024D0604B1460481460451460421466
:1045F400603F24F56003024685901942E0F5087592
:1046040009007808122A217C5D7D9374021227FC2C
:10461400121BF974021227B4AA18AB191218398A9A
:10462400088B09AC08AD09AA18AB19121803025576
:104634004B8E828F83A3A3A3A3A3A3A3E024D09030
:104644001942F0121A4F901942E0F50875090078E2
:1046540008122A217C817D9374021227FC121BF913
:1046640074021227B4AA18AB191218398A088B09D4
:10467400AC08AD09AA18AB19121803751501025537
:104684004B75140002554B740A6508700474006578
:1046940009701679077C0E7D95EEFAEFFB121A3D30
:1046A400E9600675140002554B740A6508700474B9
:1046B400006509701679077C167D95EEFAEFFB12FA
:1046C4001A3DE9600675140002554B740A650870BA
:1046D4000474006509600302479C79077C1E7D957C
:1046E400EEFAEFFB121A3DE9700302479C8E828FAB
:1046F40083A3A3A3A3A3A3A3E024D060451460428F
:1047040014603F24F36003024796901945E0F508CE
:104714007509007808122A217C5D7D9374021227A2
:10472400FC121BF974021227B4AA18AB1912183917
:104734008A088B09AC08AD09AA18AB191218030230
:10474400554B8E828F83A3A3A3A3A3A3A3E024D05A
:10475400901945F0121A4F901945E0F508750900B3
:104764007808122A217C817D9374021227FC121B83
:10477400F974021227B4AA18AB191218398A088BD3
:1047840009AC08AD09AA18AB191218037515010272
:10479400554B75140002554BE508C3940AF8E50916
:1047A4009400F9C3E8940BE9940040030248777934
:1047B400077C267D95EEFAEFFB121A3DE9700302A1
:1047C40048778E828F83A3A3A3A3A3A3A3E0643F0C
:1047D40070357508467509197808122A217C997D67
:1047E4009374021227FC121BF974021227B4AA183C
:1047F400AB191218398A088B09AC08AD09AA18AB91
:104804001912180302554B7C0C7D0079007A467B03
:1048140019121857E50824F9F508E50934FFF509D4
:104824007808122A21EE2407FCE43FFD7A467B191E
:1048340012183F74021227B4121A4F7508467509EC
:10484400197808122A217C457D9374021227FC12E0
:104854001BF974021227B4AA18AB191218398A0862
:104864008B09AC08AD09AA18AB1912180375150108
:1048740002554B740A6508700474006509703C792C
:10488400087CBC7D94EEFAEFFB121A3DE9602C7CA7
:10489400B07D93AA18AB19121BF9AA18AB191218F8
:1048A400398A088B09AC08AD09AA18AB1912180388
:1048B4007900121A5575150102554B740A65087072
:1048C4000474006509701679087CAA7D94EEFAEFE9
:1048D400FB121A3DE9600675150102554B740A6511
:1048E4000870047400650960030249B979077C3EC5
:1048F4007D95EEFAEFFB121A3DE970030249B98E79
:10490400828F83A3A3A3A3A3A3A3E024D060421410
:10491400603F24F260030249B3901952E0F5087530
:1049240009007808122A217C5D7D9374021227FC09
:10493400121BF974021227B4AA18AB191218398A77
:10494400088B09AC08AD09AA18AB19121803025553
:104954004B8E828F83A3A3A3A3A3A3A3E024D0F9A4
:10496400E970089019527400F0800690195274018D
:10497400F0121A4F901952E0F508750900780812E0
:104984002A217C817D9374021227FC121BF9740284
:104994001227B4AA18AB191218398A088B09AC0863
:1049A400AD09AA18AB1912180375150102554B75F8
:1049B400140002554B740A6508700474006509708C
:1049C4001079087CB37D94EEFAEFFB121A3DE9707E
:1049D40022740F65087004740065096003024A9824
:1049E40079077CC57D94EEFAEFFB121A3DE970035A
:1049F400024A988E828F83A3A3A3A3A3A3A3E064F4
:104A04003F70357508537509197808122A217CAC52
:104A14007D9274021227FC121BF974021227B4AAA5
:104A240018AB191218398A088B09AC08AD09AA18F1
:104A3400AB1912180302554B75080675090078085E
:104A4400122A21EE2407FCE43FFD7A537B19121845
:104A54003F74021227B49019597400F0121A4F755A
:104A640008537509197808122A217C457D9374022C
:104A74001227FC121BF974021227B4AA18AB1912DC
:104A840018398A088B09AC08AD09AA18AB19121891
:104A94000302554B740A65087004740065096003C9
:104AA400024B6279077CCD7D94EEFAEFFB121A3D3E
:104AB400E97003024B628E828F83A3A3A3A3A3A3F3
:104AC400A3E024D0604214603F24F26003024B5CF4
:104AD40090195AE0F5087509007808122A217C5DBE
:104AE4007D9374021227FC121BF974021227B4AAD4
:104AF40018AB191218398A088B09AC08AD09AA1821
:104B0400AB1912180302554B8E828F83A3A3A3A360
:104B1400A3A3A3E024D090195AF0121A4F90195A63
:104B2400E0F5087509007808122A217C817D9374C8
:104B3400021227FC121BF974021227B4AA18AB192B
:104B44001218398A088B09AC08AD09AA18AB1912D6
:104B5400180375150102554B75140002554BC3E536
:104B640008940AE5099400404579087C627D94EE36
:104B7400FAEFFB121A3DE9603575085B750919787F
:104B840008122A217CD37D9274021227FC121BF98D
:104B940074021227B4AA18AB191218398A088B099F
:104BA400AC08AD09AA18AB1912180302554B740AC4
:104BB40065087004740065096003024C4D79087C33
:104BC400597D94EEFAEFFB121A3DE9607C121A61EA
:104BD400E96401706E9095CC744312280474041235
:104BE40026B17E009019FA7401F0901975E07004F2
:104BF4007E0180057E00121AF1EEF83395E0F97417
:104C0400431227EAE58228F582E58339F583E0F546
:104C1400087509007808122A217C8D7D937402128C
:104C240027FC121BF974021227B4AA18AB19121824
:104C3400398A088B09AC08AD09AA18AB19121803F4
:104C440002554B75140002554B74146508700474B6
:104C54000065096003024CFD79067C4D7D95EEFAF2
:104C6400EFFB121A3DE97003024CFD909505744068
:104C740012280474031226B1750800121A61E9643B
:104C84000170709019FA7402F0750A0C750B0078B3
:104C94000A122A21EE2406FCE43FFD7A687B1912ED
:104CA400183F74021227B4E508F8790074401227FB
:104CB400EAE58228F582E58339F583E0F50875098C
:104CC400007808122A217C8D7D9374021227FC122D
:104CD4001BF974021227B4AA18AB191218398A08DE
:104CE4008B09AC08AD09AA18AB19121803121AF1F2
:104CF40002554B75140002554B740A650870047410
:104D0400006509705579087C6B7D94EEFAEFFB120F
:104D14001A3DE96045121A61E9640170377901129C
:104D24001A557C007D0079007A097B041215EDE99F
:104D34007CC67D93AA18AB19121BF9AA18AB1912D9
:104D440018398A088B09AC08AD09AA18AB191218CE
:104D54000302554B75140002554B740A6508700420
:104D6400740065096003024E2779087C237D94EE64
:104D7400FAEFFB121A3DE97003024E27121A61E999
:104D840064016003024E27121A61E96401600302A0
:104D94004E21901975E070247C227D92AA18AB19DB
:104DA400121BF9AA18AB191218398A088B09AC0816
:104DB400AD09AA18AB1912180302554B7E009019BD
:104DC40075E0F8EEC398400302554BEEF87900E81D
:104DD40075F00CA4C8AAF075F000A42AFA75F00CBA
:104DE400E9A42AF9747828F508741939F5097808BA
:104DF400122A217C787D9274021227FC121BF9740A
:104E0400021227B4AA18AB191218398A088B09ACF4
:104E140008AD09AA18AB191218030E80A175140065
:104E240002554B740A65087004740065097045796D
:104E3400087C2C7D94EEFAEFFB121A3DE96035757F
:104E440008C77509957808122A217CC27D957402D9
:104E54001227FC121BF974021227B4AA18AB1912F8
:104E640018398A088B09AC08AD09AA18AB191218AD
:104E74000302554B740A65087004740065096003E5
:104E8400024F2579077CDD7D94EEFAEFFB121A3D83
:104E9400E97003024F25121A61E96401707D8E8264
:104EA4008F83A3A3A3A3A3A3A3E0643F70309019AB
:104EB400F0122A387C467D9574021227FC121BF9E5
:104EC40074021227B4AA18AB191218398A088B096C
:104ED400AC08AD09AA18AB1912180302554B901966
:104EE400F07410F0A37427F0121A4F9019F0122ADC
:104EF400387C407D9274021227FC121BF974021252
:104F040027B4AA18AB191218398A088B09AC08AD52
:104F140009AA18AB1912180302554B75140002554F
:104F24004B740A6508700474006509704A790A7C38
:104F3400A17D94EEFAEFFB121A3DE9603A9019F262
:104F4400E0F5083395E0F5097808122A217C927D72
:104F54009274021227FC121BF974021227B4AA18C5
:104F6400AB191218398A088B09AC08AD09AA18AB19
:104F74001912180302554B740A650870047400650D
:104F840009600302505279077C367D95EEFAEFFBF7
:104F9400121A3DE970030250528E828F83A3A3A399
:104FA400A3A3A3A3E0643F70389019F4E0F5087557
:104FB40009007808122A217C9F7D9274021227FC32
:104FC400121BF974021227B4AA18AB191218398AE1
:104FD400088B09AC08AD09AA18AB191218030255BD
:104FE4004B8E828F83A3A3A3A3A3A3A3E024D09077
:104FF40019F4F09019F4E0C3940440069019F47481
:1050040000F0121A4F9019F4E0F5087509007808B9
:10501400122A217C817D9374021227FC121BF974DD
:10502400021227B4AA18AB191218398A088B09ACD2
:1050340008AD09AA18AB191218039019F4E0F87412
:1050440003C398F9120BE5E975150102554B740A6F
:105054006508700474006509600F740F65087004B6
:1050640074006509600302513379077C2E7D95EE47
:10507400FAEFFB121A3DE97003025133121A61E987
:10508400600302512D8E828F83A3A3A3A3A3A3A3A2
:10509400E0643F70309019F5122A387C317D9274A7
:1050A400021227FC121BF974021227B4AA18AB19B6
:1050B4001218398A088B09AC08AD09AA18AB191261
:1050C400180302554B7906EE2407FAE43FFB121A43
:1050D400438A088B098C0A8D0B9019F5E508F0A317
:1050E400E509F09019F5C3E09410A3E09427400378
:1050F40002554B121A4F9019F5122A387C407D92B2
:1051040074021227FC121BF974021227B4AA18ABFA
:10511400191218398A088B09AC08AD09AA18AB19F9
:1051240012180375150102554B75140002554B7482
:105134000A650870047400650960030251FE79076A
:105144007CFD7D94EEFAEFFB121A3DE970030251E7
:10515400FE8E828F83A3A3A3A3A3A3A3E0643F70C3
:10516400389019F7E0F5087509007808122A217CAF
:105174005D7D9374021227FC121BF974021227B48A
:10518400AA18AB191218398A088B09AC08AD09AAF8
:1051940018AB1912180302554B7901EE2407FAE4EF
:1051A4003FFB121A438A088B098C0A8D0BE5089081
:1051B40019F7F09019F7E0C394025038121A4F907F
:1051C40019F7E0F5087509007808122A217C817D19
:1051D4009374021227FC121BF974021227B4AA1842
:1051E400AB191218398A088B09AC08AD09AA18AB97
:1051F4001912180375150102554B740A65087004D9
:1052040074006509704B790A7CA57D93EEFAEFFB77
:10521400121A3DE9603B121A61E96401702D90197C
:10522400FA7403F07CBB7D93AA18AB19121BF9AA7C
:1052340018AB191218398A088B09AC08AD09AA18D9
:10524400AB19121803121AF102554B7514000255CA
:105254004B740A6508700474006509703A79077C18
:10526400E57D94EEFAEFFB121A3DE9602A121A6109
:10527400E96401701C9019FA7404F08E828F83A380
:10528400A3A3A3A3A3A3E024D0F9121B27E90255E7
:105294004B75140002554B7409650870047400655D
:1052A40009600302554879067C627D95EEFAEFFBAE
:1052B400121A3DE970030255488E828F83A3A3A37B
:1052C400A3A3A3E0F516E51624CC60181460191402
:1052D400601A14601B147003025382147003025486
:1052E400560255437E04800A7E0580067E068002AF
:1052F4007E0779801217197A04EEF91217138A08B7
:105304008B09AC08AD098C088D09E4F50AF50B7816
:1053140008121CA6909674780C1226567808790CFC
:10532400121EB1909678780C1226567808790C12D1
:1053340022707808122A1D8C088D097808122A21F7
:10534400E516F87900E824D0F508E934FFF5097882
:1053540008122A217CB67D8F74081227FC121BF9CF
:1053640074081227B4AA18AB191218398A088B09C1
:10537400AC08AD09AA18AB1912180302554B7E11DB
:105384007F0175089975090179001217197A027954
:105394000F1217138A0A8B0BAC0AAD0BC3EC9508DA
:1053A400ED9509400474648058C3EE9CEF9D40045D
:1053B4007400804DE508C39EF8E5099FF9E82401CF
:1053C400FAE439FB8A088B097402780812277CAA4C
:1053D40008AB09ECC39EF8ED9FF9E875F019A4C871
:1053E400AEF075F000A42EFE75F019E9A42EF9E8CC
:1053F4002AF8E93BF9E824FFF8E934FFF912271306
:10540400E8F5087509007808122A218C088D0978B6
:1054140008122A21E516F87900E824D0F508E934C1
:10542400FFF5097808122A217C707D9074061227F2
:10543400FC121BF974061227B4AA18AB19121839F6
:105444008A088B09AC08AD09AA18AB191218030213
:10545400554B750C00750D00750E00750F009062AC
:105464004B7401F09061A97401F07E0080577900BB
:105474001217197A03790E1217138A088B09AC08CC
:10548400AD098C088D09E4F50AF50B7808121CA601
:1054940090967C781012265678087910121EB190D6
:1054A4009680781012265678087910122056909615
:1054B40084781012265678087910122270780C79A4
:1054C400081220560EEEC3944040A3850C08850DA7
:1054D40009850E0A850F0B909688780C122656784B
:1054E40008790C12227090624BE0C2E0F09061A93E
:1054F400E0C2E0F07808122A1D8C088D09780812A1
:105504002A21E516F87900E824D0F508E934FFF5F6
:10551400097808122A217C877D9074081227FC12CE
:105524001BF974081227B4AA18AB191218398A087F
:105534008B09AC08AD09AA18AB19121803800875B9
:1055440014008003751400E51560117AC87B0012FD
:105554001A37C2AF75C9AB75C95B80FEA91474470D
:105564001227B47F0F0228E074F612280E74C812B2
:10557400279EE9FF7E01EFA2E54003025610901C2E
:10558400C1E0C2E5F07C697D957A1F7B1A121BF994
:105594007C517D937A2B7B1A121BF9901CC0E0700E
:1055A40008901CC07401F08006901CC07400F09038
:1055B4001CC0E06007790112192F800579001219C7
:1055C4002F901CC0E0F5087509007808122A217C88
:1055D400E77D93740E1227FC121BF974021227B490
:1055E4007906740C1227FC121779740C1227FC121A
:1055F4001C0B8A088B09AC08AD09740C1227FC1229
:1056040018097A017B00121A3702582AEFA2E050D7
:1056140042901CC1E0C2E0F07C707D957A1F7B1A39
:10562400121BF97C867D947A2B7B1A121BF9121AB1
:1056340061E96401600302582A901A79E0640270F7
:105644000302582A7C0A7D007AA57B93121AD3E9B7
:1056540002582AEFA2E45035901CC1E0C2E4F07C69
:105664007D7D947A1F7B1A121BF97CD77D917A2B4E
:105674007B1A121BF99019F9E070099019F9740159
:10568400F002582A9019F97400F002582AEFA2E3A4
:10569400503B901CC1E0C2E3F07C747D947A1F7B84
:1056A4001A121BF97C747D947A2B7B1A121BF91243
:1056B4001A61E96401600302582A901A79E06402CD
:1056C400700302582A7901121B1502582AEFA2E12D
:1056D4005020901CC1E0C2E1F07C057D947A1F7BD0
:1056E4001A121BF97CB47D907A2B7B1A121BF902D7
:1056F400582AEFA2E24003025828901CC1E0C2E2FB
:10570400F07CD17D937A1F7B1A121BF97C137D9256
:105714007A2B7B1A121BF9121A61E96401600302E5
:1057240057C9901A79E064026039121B1BE9F50825
:105734007509007808122A217C397D937402122796
:10574400FC121BF974021227B4AA18AB19121C0B11
:105754008A088B09AC08AD09AA18AB19121AD3E947
:1057640002582A121A67E9700302582A901A3FE075
:105774006008901A3F7400F08006901A3F7401F09C
:10578400901A3FE0F5087509007808122A217C0771
:105794007D9374021227FC121BF974021227B4AA17
:1057A40018AB19121C0B8A088B09AC08AD09AA188E
:1057B400AB19120549E97A107B00901A44E0F912FA
:1057C4001899E98061121A67E9605B901A40E060F9
:1057D40008901A407400F08006901A407401F0900A
:1057E4001A40E0F5087509007808122A217C147D16
:1057F4009374021227FC121BF974021227B4AA181C
:10580400AB19121C0B8A088B09AC08AD09AA18AB9A
:1058140019120549E97A107B00901A44E0F912182C
:1058240099E980027E00901CC1E07014901A41E056
:10583400700E901A417401F07A01790712178BE9FE
:10584400EE605675082B75091A7808122A217C7E99
:105854007D95740E1227FC121BF974021227B49062
:105864001CC1E0600678007900800478807900E843
:105874004408F9740C1227FC12177975081F75096E
:105884001A7808122A217C7E7D95740E1227FC1248
:105894001BF974021227B4805475082B75091A7801
:1058A40008122A217C5B7D95740E1227FC121BF9C9
:1058B40074021227B4901CC1E0600678007900805D
:1058C4000478807900E84408F9740C1227FC121754
:1058D4007975081F75091A7808122A217C5B7D9551
:1058E400740E1227FC121BF974021227B4740C12E2
:1058F40027F4880889097808122A217CC27D9574C6
:10590400261227FC121BF974021227B4121A67E933
:10591400702174241227FC121C0B8A088B09AC0812
:10592400AD0974241227FC1218037A017B00121AA1
:1059340037802674241227FC121C0B8A088B09ACAE
:1059440008AD0974241227FC120549E97A107B007A
:10595400901A44E0F9121899E974381227B47F02B6
:105964000228E074EC12280E74C012279EEAFEEBA3
:10597400FF8C088D09C3E5089409E50994004039B2
:1059840079087C477D94EEFAEFFB121A3DE9602911
:105994008E828F83A3A3A3A3A3A3A3A3E0F874304D
:1059A40068700B7A00790212178BE9025D137A0191
:1059B400790212178BE9025D13C3E5089409E5091E
:1059C4009400403979087C8F7D94EEFAEFFB121A2B
:1059D4003DE960298E828F83A3A3A3A3A3A3A3A3DA
:1059E400E0F8743068700B7A00790412178BE902BE
:1059F4005D137A01790412178BE9025D13C3E5087C
:105A04009409E5099400403579087C357D94EEFAD3
:105A1400EFFB121A3DE960258E828F83A3A3A3A313
:105A2400A3A3A3A3E0F874306870099019F9740073
:105A3400F0025D139019F97401F0025D13C3E508D7
:105A44009407E50994005003025D1379067C627D96
:105A540095EEFAEFFB121A3DE97003025D138E8294
:105A64008F83A3A3A3A3A3A3E0FEEE24CC60181406
:105A7400601914601A14601B147003025B321470F2
:105A840003025C1B025D137F04800A7F0580067F8E
:105A94000680027F0779801217197A04EFF912172A
:105AA400138A088B09AC08AD098C088D09E4F50A42
:105AB400F50B7808121CA6909674780C122656786A
:105AC40008790C121EB1909678780C122656780834
:105AD400790C1222707808122A1D8C088D09780816
:105AE400122A21EEF87900E824D0F508E934FFF50C
:105AF400097808122A217CB67D8F74081227FC12BB
:105B04001BF974081227B4AA18AB19121C0B8A08C3
:105B14008B09AC08AD09AA18AB19120549E97A102A
:105B24007B00901A44E0F9121899E9025D13750894
